:020000040800F2
:1000000018040020490100082D130008B51200084B
:1000100029130008EB060008CF13000800000000B9
:100020000000000000000000000000005D13000858
:10003000EF06000800000000311300085F130008FD
:100040006301000863010008630100086301000800
:1000500063010008630100086301000863010008F0
:1000600063010008630100086301000863010008E0
:1000700063010008630100086301000863010008D0
:1000800063010008630100086301000863010008C0
:1000900063010008630100086301000863010008B0
:1000A00063010008630100086301000863010008A0
:1000B0006301000863010008630100086301000890
:1000C0006301000863010008630100086301000880
:1000D0006301000863010008630100086301000870
:1000E0006301000863010008630100086301000860
:1000F0006301000863010008630100086301000850
:10010000630100086301000863010008630100083F
:10011000630100086301000863010008630100082F
:10012000630100086301000863010008630100081F
:10013000DFF810D000F080FA00480047A11A00084C
:10014000AFF30080180400200648804706480047A7
:10015000FEE7FEE7FEE7FEE7FEE7FEE7FEE7FEE777
:10016000FEE7FEE7CD13000831010008202A04DB7A
:10017000203A21FA02F00021704721FA02F3D04020
:10018000C2F120029140084319467047D2B201E003
:1001900000F8012B491EFBD270470022F6E710B58C
:1001A00013460A4604461946FFF7F0FF204610BDE5
:1001B0002DE9FE4F804681EA0300C00F0C460090F7
:1001C00021F0004123F00045B8EB0200A94105D21F
:1001D0004046214690461C460B46024623F000400E
:1001E000104347D0270DC7F30A00C3F30A5102900A
:1001F000401A019040286BDAC3F3130040F4801BCF
:100200000098924620B10023D2EB030A63EB0B0B5C
:1002100001985946C0F14002504600F08FF9064659
:100220000D4650465946019A00F097F910EB080028
:100230006141002487EA115284EAE7731A4340D0EF
:10024000009A62B3019A012A4FEA075215DC001B9B
:1002500061EB02014FF0004202EA0752CDE9004291
:10026000001C41F5801132462B4600F097F903B08F
:10027000BDE8F08F40462146F9E7001B61EB020123
:10028000001C41F5801300185B412018A2F50017EF
:1002900047EB030140EAD570B6196D4111E06D08D6
:1002A0004FEA360645EAC0754FEA0752001B61EB7C
:1002B0000201001C41F5801149084FEA3000001985
:1002C000514132462B4603B0BDE8F04F00F057B91C
:1002D0000098012240000023D0EB020263EBE073A0
:1002E000009821464FEAE074B8EB000061EB04018E
:1002F000E9E783F000435BE781F0004158E72DE92F
:10030000FE4F81EA030404F0004421F00041009410
:100310004FF0000B23F0004350EA01045ED052EA94
:1003200003045BD0C3F30A54C1F30A552C44A4F26E
:10033000F3340194A0FB0254C1F3130141F4801182
:10034000C3F3130343F4801301FB024400FB034E89
:10035000840A970A44EA815447EA8357A4FB076852
:1003600002958D0A05FB07854FEA932C04FB0C547C
:100370002705029D4FEA065847EA1637B5EB0805F0
:100380006EEB070C870E920E47EA811742EA831242
:10039000A7FB0201B6EB0B0164EB00042B0D43EA53
:1003A0000C335E1844EB1C50DA465146E7FB020161
:1003B000C5F313044FEA0B3343EA14534FEA0432F4
:1003C000019C43EA0603A4F10C040294009CCDE9CD
:1003D00000B400F0E3F803B0BDE8F08F0020014660
:1003E000F9E72DE9F04D81EA030404F0004B21F018
:1003F000004514464FF0000A23F0004150EA050280
:1004000020D054EA01021DD0C5F30A570246C5F3B5
:100410001303C1F31300C1F30A5640F4801543F4EB
:100420008013A7EB0608101BD64608F2FD3873EBC5
:10043000050002D308F1010801E092185B41B8F110
:10044000000F03DA00200146BDE8F08D00204FF4D4
:100450008011064684460EE0171B73EB050705D393
:10046000121B63EB050306434CEA010C49084FEAF3
:10047000300092185B4150EA0107EDD152EA0300C7
:1004800012D082EA040083EA0501084305D0101B5C
:10049000AB4106D20122002306E000224FF00043C8
:1004A00002E06FF0010253101AEB06004CEB08510A
:1004B00010EB0A0041EB0B01BDE8F04D00F05FB816
:1004C0000EB540F2334102910021CDE900110A46F8
:1004D0000B4600F063F803B000BDC1F30A5210B53B
:1004E000C1F3130140F2FF3341F480119A4201DA63
:1004F000002010BD40F233439A42A2F2334203DCA3
:100500005242FFF733FE10BD904010BD30B5041EBF
:1005100071F1000404DB4FF00044404264EB010140
:10052000141E73F1000405DB1C464FF000435242D9
:1005300063EB04038B4208BF824230BD202A04DBF8
:10054000203A00FA02F1002070479140C2F12003E6
:1005500020FA03F3194390407047202A06DBCB179B
:10056000203A41FA02F043EAE07306E041FA02F36E
:10057000D040C2F12002914008431946704710B59F
:10058000141E73F1000408DA401C41F100019218B6
:100590005B411A4301D120F0010010BD2DE9F04D5F
:1005A00092469B4611B1B1FA81F202E0B0FA80F2B4
:1005B00020329046FFF7C2FF04460F4640EA0A0089
:1005C00041EA0B0153465A46084313D0114653EAF9
:1005D000010019D0C8F140025046FFF7C7FD05469B
:1005E0000E46504659464246FFF7A8FF084305D03D
:1005F000012004E020463946BDE8F08D0020054387
:1006000046EAE0762C4337430A986305E40AA0EBF8
:1006100008000022FD0A44EA47540A3002D50020AF
:100620000146E9E7010510196941DDE908450019AE
:100630006941BDE8F04DA2E7064C074D06E0E068D1
:1006400040F0010394E8070098471034AC42F6D319
:10065000FFF772FD301D0008501D000870B521F035
:10066000004303430CD0C1F30A550024D5EB040525
:1006700064EB0403D617AD1AB34102DB0020014638
:1006800070BD201841EB025170BD0EB5C10F80EA5C
:10069000E0700844CA07002140F233438DE80E00A1
:1006A0000A460B46FFF77AFF03B000BD70B5C1F3F1
:1006B0000A5201F000450024C1F3130140F2FF3358
:1006C00041F480119A4201DA002070BD40F23343B8
:1006D0009A42A2F2334203DC5242FFF747FD00E0A8
:1006E00090402C43F1D0404270BD00BFFEE7704700
:1006F00072B600BFFEE7000070B5044600F0B6F920
:1007000006462546681C10B104480078054400BF21
:1007100000F0ACF9801BA842FAD370BD080000209D
:100720002DE9F847024600239C467BE14FF0010883
:1007300008FA03F4D1F8008008EA0400A0427DD151
:10074000DFF8F4A2D1F80480A8EB0A09D0453AD02A
:1007500014DCB8F1030F50D009DCB8F1000F31D030
:10076000B8F1010F1CD0B8F1020F49D120E0B8F167
:10077000110F18D0B8F1120F42D11EE0B9F5881F41
:1007800025D006DCB9F5803F20D0B9F5801F37D1E0
:100790001AE0B9F5001F18D0B9F5041F30D117E0E1
:1007A000D1F80CC02DE0D1F80C8008F1040C28E041
:1007B000D1F80C8008F1080C23E0D1F80C8008F186
:1007C0000C0C1EE000BF00BF00BF00BF00BF00BF99
:1007D000D1F80880B8F1000F02D14FF0040C0BE003
:1007E000D1F80880B8F1010F03D14FF0080C146163
:1007F00002E04FF0080C546103E04FF0000C00E001
:1008000000BF00BFFF2801D8904601E002F10408B4
:100810004646FF2802D84FEA830803E0A3F1080800
:100820004FEA88084746D6F800804FF00F0909FACA
:1008300007F928EA09080CFA07F900E07AE048EA23
:100840000908C6F80080D1F8048008F08058B8F193
:10085000805F6FD100BFDFF8E481D8F8188048F0DE
:100860000108DFF8D891C9F81880C846D8F8188070
:1008700008F00108CDF8008000BF00BF4FEAB9388A
:100880004FEA930958F829504FEA83784FEA1879CC
:100890004FF00F0808FA09F825EA0805DFF8A081EB
:1008A000424502D14FF0000824E0DFF8988142452C
:1008B00002D14FF001081DE0DFF88C81424502D1E2
:1008C0004FF0020816E0DFF88481424502D14FF074
:1008D00003080FE0DFF87881424502D14FF00408A9
:1008E00008E0DFF87081424502D14FF0050801E0D1
:1008F0004FF006084FEA83794FEA197908FA09F8A8
:1009000048EA0505DFF850814FEA930948F8295075
:10091000D1F8048008F48038B8F5803F0BD1DFF8B7
:100920003C81D8F8008048EA0008DFF83091C9F827
:1009300000800AE075E0DFF82481D8F8008028EA1A
:100940000008DFF81891C9F80080D1F8048008F495
:100950000038B8F5003F0ED1DFF8008108F1040837
:10096000D8F8008048EA0008DFF8F09009F104099F
:10097000C9F800800DE0DFF8E48008F10408D8F839
:10098000008028EA0008DFF8D49009F10409C9F8CA
:100990000080D1F8048008F48018B8F5801F0ED1CB
:1009A000DFF8B88008F10808D8F8008048EA0008A5
:1009B000DFF8A89009F10809C9F800800DE0DFF818
:1009C0009C8008F10808D8F8008028EA0008DFF8C1
:1009D0008C9009F10809C9F80080D1F8048008F466
:1009E0000018B8F5001F0ED1DFF8708008F10C0870
:1009F000D8F8008048EA0008DFF8609009F10C0997
:100A0000C9F800800DE0DFF8548008F10C08D8F830
:100A1000008028EA0008DFF8449009F10C09C9F8C1
:100A200000805B1CD1F8008028FA03F8B8F1000FB1
:100A30007FF47CAEBDE8F887000011100010024082
:100A400000080140000C014000100140001401406A
:100A500000180140001C0140080001400004014052
:100A60000AB1016101E00B040361704701480068AD
:100A7000704700000000002003480068034909781F
:100A80000844014908607047000000200800002069
:100A900010B50848006840F01000064908600320BF
:100AA00000F098F8002000F007F800F02BF8002084
:100AB00010BD00000020024070B504460E480078CA
:100AC0004FF47A71B1FBF0F00C490968B1FBF0F515
:100AD000284600F0D5FB08B1012070BD102C07D2CC
:100AE00000222146501E00F037F80548046001E05E
:100AF0000120F2E70020F0E7080000200C000020B1
:100B00000400002008B500BF1148806940F00100D2
:100B10000F4988610846806900F00100009000BF1D
:100B200000BF00BF0846C06940F08050C861084659
:100B3000C06900F08050009000BF00BF00BF0549B1
:100B4000486820F0E06040F00070486000BF08BDD9
:100B500000100240000001402DE9F05F80460D4684
:100B60001646002700F04AFC074639462A46334617
:100B700001F00700C0F1070ABAF1040F02D94FF0E3
:100B8000040A01E0C0F1070AD14600F1040ABAF1F3
:100B9000070F02D24FF0000A01E0A0F1030AD44689
:100BA0004FF0010A0AFA09FAAAF1010A0AEA020A4E
:100BB0000AFA0CFA4FF0010B0BFA0CFBABF1010B2C
:100BC0000BEA030B4AEA0B042146404600F01EFCE8
:100BD000BDE8F09F00BF00F00702064B19684FF612
:100BE000FF031940044B0B4343EA0221014B1960F8
:100BF00000BF70470CED00E00000FA0570B5044638
:100C00000D460CB9012070BD5A48006800F007007D
:100C1000A8420ED25748006820F0070028435549E3
:100C200008600846006800F00700A84201D00120D3
:100C3000E9E7207800F0020002281DD1207800F0BA
:100C40000400042805D14C48406840F4E0604A495B
:100C50004860207800F00800082805D14648406820
:100C600040F46050444948604348406820F0F00038
:100C7000A168084340494860207800F0010078B33B
:100C80006068012806D13C48006800F4003090B943
:100C90000120B8E76068022806D13748006800F0F4
:100CA000007040B90120AEE73348006800F0020050
:100CB00008B90120A7E73048406820F003006168C8
:100CC00008432D494860FFF7D1FE064609E0FFF7CB
:100CD000CDFE801B41F28831884202D9032092E781
:100CE00007E02548406800F00C006168B0EB810F18
:100CF000EDD12048006800F00700A8420ED91D4839
:100D0000006820F0070028431A4908600846006878
:100D100000F00700A84201D0012074E7207800F01D
:100D20000400042807D11448406820F4E060E1681A
:100D3000084311494860207800F00800082808D1CD
:100D40000D48406820F46050216940EAC1000A491A
:100D5000486000F019F808494968C1F30311074ACF
:100D6000515CC8400649086006480068FFF7A4FEC9
:100D7000002048E70020024000100240F41B000859
:100D80000C00002004000020F0B585B00FF26C0CC0
:100D90009CE8E01001A8A0E8E0101CA52D680095D3
:100DA00000210022002300240020194D696801F071
:100DB0000C05F5B1042D02D0082D19D101E015481C
:100DC00019E001ADC1F38346AC5D01F4803555B146
:100DD0000F4D6D68C5F340451DF805200D4D654369
:100DE000B5FBF2F302E00C4D04FB05F3184602E0FC
:100DF00000BF084800BF00BF05B0F0BD02030405F6
:100E0000060708090A0B0C0D0E0F10100102000056
:100E10000010024000127A0000093D00F8B50446B7
:100E20000CB90120F8BD207800F00100002878D02E
:100E3000F848406800F00C0004280CD0F5484068E1
:100E400000F00C00082811D1F248406800F480300E
:100E5000B0F5803F0AD1EF48006800F40030002868
:100E60005FD0606800285CD10120DBE700BF6068CC
:100E7000B0F5803F06D1E748006840F48030E5498E
:100E8000086028E0606858B9E248006820F48030C3
:100E9000E04908600846006820F4802008601AE0F5
:100EA0006068B0F5A02F0BD1DA48006840F48020CC
:100EB000D84908600846006840F4803008600AE0BD
:100EC000D448006820F48030D249086008460068A1
:100ED00020F48020086000BF606888B1FFF7C6FD7D
:100EE000054606E0FFF7C2FD401B642801D9032038
:100EF00098E7C848006800F400300028F2D010E0FD
:100F0000FFF7B4FD054606E0FFF7B0FD401B64287F
:100F100001D9032086E7BF48006800F400300028AC
:100F2000F2D1207800F00200022857D1B948406879
:100F300000F00C0050B1B748406800F00C000828E1
:100F400018D1B448406800F4803098B9B1480068BE
:100F500000F0020020B12069012801D0012061E7E2
:100F6000AC48006820F0F800616940EAC100A94976
:100F7000086033E02069E8B10120A7490860FFF765
:100F800075FD054606E0FFF771FD401B022801D9FB
:100F9000032047E79F48006800F002000028F2D0D5
:100FA0009C48006820F0F800616940EAC100994956
:100FB000086013E0002098490860FFF757FD0546D8
:100FC00006E0FFF753FD401B022801D9032029E763
:100FD0009048006800F002000028F2D1207800F06C
:100FE000080008282DD1A069B8B101208B490860FC
:100FF000FFF73CFD054606E0FFF738FD401B0228E1
:1010000001D903200EE78348406A00F0020000285F
:10101000F2D0012000F08EF913E000207F49086033
:10102000FFF724FD054606E0FFF720FD401B0228E0
:1010300001D90320F6E67748406A00F00200002854
:10104000F2D1207800F00400042873D10027714801
:10105000C06900F0805070B900BF6E48C06940F0B0
:1010600080506C49C8610846C06900F0805000900B
:1010700000BF00BF01276A48006800F48070B0B963
:101080006748006840F4807065490860FFF7EEFC2F
:10109000054606E0FFF7EAFC401B642801D903205F
:1010A000C0E65F48006800F480700028F2D000BFFE
:1010B000E068012806D15748006A40F00100554910
:1010C000086227E0E06858B95248006A20F0010041
:1010D000504908620846006A20F00400086219E0DE
:1010E000E06805280BD14B48006A40F004004949EC
:1010F00008620846006A40F0010008620AE04548BC
:10110000006A20F00100434908620846006A20F0A6
:101110000400086200BFE068A0B1FFF7A7FC054625
:1011200009E0FFF7A3FC401B41F28831884202D955
:10113000032077E622E03748006A00F0020000282A
:10114000EFD012E0FFF792FC054608E0FFF78EFCB7
:10115000401B41F28831884201D9032062E62D48C4
:10116000006A00F002000028F0D1012F05D12948C3
:10117000C06920F080502749C86100BFE069C8B34A
:101180002448406800F00C00082860D0E06902287C
:1011900048D1002020490866FFF768FC054606E0B4
:1011A000FFF764FC401B022801D903203AE61948E6
:1011B000006800F000700028F2D1206AB0F5803F8E
:1011C00007D11448406820F40030A1680843114951
:1011D0004860D4E9080108430E49496821F47411B4
:1011E00008430C49486001200B490866FFF73EFCA4
:1011F000054607E03DE0FFF739FC401B022801D916
:1012000003200FE60348006800F000700028F2D0C9
:101210002FE00000001002400000424280044242E1
:1012200000700040002014490866FFF71FFC0546C7
:1012300006E0FFF71BFC401B022801D90320F1E563
:101240000E48006800F000700028F2D111E0E0695B
:10125000012800D1E6E50948466806F48031206A95
:10126000814204D106F47011606A814201D00120EC
:10127000D8E50020D6E50000000042420010024000
:1012800070B504462546681EB0F1807F01D3012069
:101290000FE0681E4FF0E02148610F214FF0FF3052
:1012A00000F0B4F800204FF0E021886107200861C9
:1012B000002070BD00BFFEE700B585B000200190A2
:1012C00002900390049000BF1548806940F0080028
:1012D000134988610846806900F00800009000BF4B
:1012E00000BF00BF0846806940F0040088610846DE
:1012F000806900F00400009000BF00BF0122114689
:101300000848FFF7ADFB01200190029000200390F8
:101310000220049001A90348FFF702FA05B000BDBE
:1013200000100240000C014000BFFEE700BFFEE7D6
:101330007047000008B508490968C9084FF47A7277
:10134000B1FBF2F14143009100BF00BF00994A1E7A
:1013500000920029F9D108BD0C000020704710B59B
:10136000FFF78AFB10BD00B58FB0282105A8FEF756
:1013700014FF14216846FEF710FF012005900004B9
:101380000690002007900120099002200C90C103D4
:101390000D914FF4E0110E9105A8FFF73FFD08B144
:1013A000FFF7A6F90F200090022001900020029084
:1013B0004FF4806003900020049002216846FFF7FC
:1013C0001DFC08B1FFF794F90FB000BD704700BFD6
:1013D000FEE7490050EAC12018BF04204A0D18BF9B
:1013E00040F0010040F2FF72B2EB515F08BF40F0E5
:1013F0000200012808BF052070470000024800686D
:10140000C0F30220704700000CED00E010B500288A
:1014100004DB0A07130E054A135406E00A07140EEC
:10142000034A00F00F031B1FD45410BD00E400E07A
:1014300018ED00E02DE9F74F144694B00021C4E9FF
:1014400002111599079121F00045C9498D4206DC2A
:101450001599C4E9000117B00020BDE8F08FC54917
:10146000DFF814A3A9423CDD0799C44E0029C44FFC
:10147000C44A1599534619DDFEF73BFF554506D082
:10148000C14AC24BFEF735FFC4E900010AE04FF044
:10149000D352BE4BFEF72DFF32463B46FEF729FFE7
:1014A000C4E9000117B00120BDE8F08FFEF780FE0F
:1014B000554506D0B44AB54BFEF77AFEC4E90001A3
:1014C0000AE04FF0D352B14BFEF772FE32463B4674
:1014D000FEF76EFEC4E9000117B04FF0FF30BDE823
:1014E000F08FAB49A942159978DB21F00041834682
:1014F0008846A84AA84BFEF702FF0022A74BFEF73A
:1015000057FEFFF7D3F80990FFF7BFF806460F46DE
:101510009C4A5346FEF7F3FE43465A46FEF7ECFE5E
:1015200080468A46984A994B30463946FEF7E7FE90
:101530002A0D01250B9242465346FEF7DDFE032D90
:10154000C4E9000139D00B98C1F30A51401A05EBE8
:1015500045111139814230DA9148C346784400EB95
:101560000510CDF80CA00C90D0E900233046394688
:10157000FEF7C5FE02460B460491069058460399B5
:10158000FEF7B7FE80468A4602460B465846039948
:10159000FEF7AFFE049B069AFEF7ABFE83460C985F
:1015A00003913946D0E902233046FEF7A8FE5A4699
:1015B000039BFEF79EFE6D1CBDE707980028A2BFA7
:1015C000099817B0BDE8F08F616881F00041616053
:1015D000099817B04042BDE8F08FFFE784461598A0
:1015E000C1F31301C0F30A50A0F2F5304FEA6018BE
:1015F00000F01F06C6F1200013900020069007900F
:1016000041F4801E05206D4676B1664A08EB000164
:101610007A4452F8213002EB8101B3404A681399B1
:1016200022FA01F1194305E05F4908EB0002794411
:1016300051F82210A1FB0E27A1FB0C131A449A4269
:1016400034BF0123002303EB070A05EB8003D3E932
:1016500001B70F448F4234BF0121002193448B44D2
:1016600011B1934502D903E0934501D2012100E075
:101670000021C3E901B7514445F82010011EA0F133
:101680000100C1DC0298059F00F10050800F12900C
:101690000298DDE903568000FEF7F7FF83462846EF
:1016A0000D91FEF70DFF6FF01D02FEF7D7FFCDE99C
:1016B0000E013046FEF704FF6FF03D02FEF7CEFF4D
:1016C00080468A463846FEF7FBFE6FF05D02FEF765
:1016D000C5FF0746424653461191FEF769FDDDE915
:1016E0000E23FEF765FD5A460D9BFEF761FD0025B2
:1016F0000E465A4628460D9BFEF7FBFDDDE90E23FC
:10170000FEF7F7FD42465346FEF7F3FD3A46119BBE
:10171000FEF7F2FDDFF898A0244A5346FEF7EFFDEE
:1017200007468846234A244B31462846FEF7E7FD04
:101730003A464346FEF73CFD074688464FF0A8422E
:10174000534631462846FEF7DAFD3A464346FEF751
:101750002FFD159A12F0004F04D0129A81F000412B
:1017600052421292C4E90001129817B0BDE8F08FFE
:10177000FB21E93F7CD90240FB21F93F7370032E26
:101780008A19A33B000040543163621A61B4D03D12
:10179000FB21394183C8C96D305FE43F0000E03F61
:1017A000E00600005C0600003E060000182D4454D0
:1017B000FB21F93D3326A611460B113C2DE9FF4DC7
:1017C00021F0004807460C46B8F1795F08DAFEF7C9
:1017D0006DFF002801BF0020324904B0BDE8F08D44
:1017E0003A46234610461946FEF789FD054602464D
:1017F0002D480E460B460621784400F05DF82A4637
:101800003346FEF77CFDDDE9022382468B463846EF
:101810002146FEF774FD04460F4652465B462846B5
:101820003146FEF76CFD22463B46FEF762FD074659
:101830008A464FF0FF3228463146FEF70FFF1B4A1B
:1018400090450ADA3A465346FEF753FD04B00022AB
:10185000BDE8F04D134BFEF74FBD154A4245A8BFFA
:10186000A8F500154FF00004B8BF124D22462B46D4
:10187000FEF73FFD0646884622462B4600200949D2
:10188000FEF737FD04460D463A465346304641467C
:10189000FEF72FFD04B022462B46BDE8F04DFEF7C3
:1018A0002BBD00000000F03F140400003333D33F91
:1018B0000000E93F0000D23F2DE9F0414F1E00EB50
:1018C000C7010446D1E9000115461E4637F006025D
:1018D0000DD02A463346FEF712FD7F1E04EBC703E8
:1018E000D3E90023FEF764FC37F00602F1D1022FA2
:1018F00025D0042F13D0062F18BFBDE8F0812A464B
:101900003346FEF7FCFCD4E90A23FEF751FC2A46D5
:101910003346FEF7F4FCD4E90823FEF749FC2A46D7
:101920003346FEF7ECFCD4E90623FEF741FC2A46D9
:101930003346FEF7E4FCD4E90423FEF739FC2A46DB
:101940003346FEF7DCFCD4E90223FEF731FC2A46DD
:101950003346FEF7D4FCD4E90023BDE8F041FEF79E
:1019600027BC00002DE9FF4D054621F0004084B062
:101970000C46B0F1795F0BDA2846FFF72AFD042800
:1019800008BF00F06FF8284608B02146BDE8F08D8A
:101990002A460B461046FEF7B2FC06460F462A467C
:1019A0002346FEF7ACFC804626488A4632463B4634
:1019B00005217844FFF780FF83461098029160B3B9
:1019C000214A224B40465146FEF799FCCDE90001E1
:1019D0005A4640465146029BFEF791FC8246884695
:1019E000DDE906014FF0FF32FEF738FE524643466E
:1019F000FEF77FFC32463B46FEF781FCDDE906231D
:101A0000FEF777FCDDE90023FEF773FC08B02A46F9
:101A10002346BDE8F04DFEF76FBC0B465A463046F4
:101A20003946FEF76CFC084A084BFEF7C1FB4246FC
:101A30005346FEF764FC08B02A462346BDE8F04D45
:101A4000FEF7B6BB52030000495555555555C5BF65
:101A50000122FEF703BE0022134610461146FEF790
:101A6000C0BC0000024A00201107FEF7F7BD0000CD
:101A700001FDFFFF02E008C8121F08C1002AFAD1C9
:101A800070477047002001E001C1121F002AFBD1FE
:101A900070470000014908607047000010000020F6
:101AA0001FB54FF0640B4FF0140AFEF7F1FFFFF77C
:101AB0005AFCFFF701FC46E0002425463CE0504676
:101AC000FEF7FEFC06460F462046294600F042F887
:101AD000804632463B46FEF712FCCDE90001FEF798
:101AE000FCFC80B20390BDF80C00AAEB000080B2B1
:101AF0000290002201211448FEF7B2FFBDF80C004D
:101B0000FEF7FAFD012211460F48FEF7A9FFBDF8C6
:101B10000800FEF7F1FD5846FEF7D2FC06463246B5
:101B20000B460A480A49FEF75CFC804622462B46D3
:101B3000FEF73EFB04460D46044A054B2046294667
:101B4000FEF7E4FCBBD9B7E7000C01401F85EB5161
:101B5000B81E094000B5254B21F0004287B09A42DB
:101B600003DC0022134600922BE0214B9A4208D15D
:101B700040B94FF00100FFF78DFFFFF76CFF07B092
:101B800000BD03DBFFF764FF07B000BD02AAFFF74B
:101B900051FC10F003014FF001000DD0012914D0C9
:101BA00002291AD00DF1080C9CE80F00FFF706FE81
:101BB00007B081F0004100BD0DF1080C00909CE8D9
:101BC0000F00FFF7CFFE07B000BD0DF1080C9CE839
:101BD0000F00FFF7F3FD07B000BD0DF1080C0090FA
:101BE0009CE80F00FFF7BEFEE2E70000FB21E93FA3
:101BF0000000F07F0000000000000000010203046C
:101C000006070809000000000102030400000000AC
:101C10004C5555555555A53F7751C1166CC156BF0A
:101C20009015CB19A001FA3EAD529C804F7E92BE1A
:101C3000C4B1B4BD9EEE213ED43888BEE9FAA8BD39
:101C400000004054FB21F93F3163621A61B4D03D7A
:101C50000000601A61B4D03D7370032E8A19A33B53
:101C60000000002E8A19A33BC14920259A837B39A5
:101C700000000000000000006E83F9A22915444E08
:101C8000D15727FCC0DD34F5999562DB4190433C88
:101C9000AB6351FE61C5BBDE3A6E24B7E0D24D4264
:101CA000EA2E49061C92D1091CEB1DFE3EA729B164
:101CB000F53582E88444BB2E26709CE9417E5FB4F2
:101CC00039D69139F43953838B5F849C3B28F9BD15
:101CD000FF97F81F0F9805DE8B112FEF1F6D0A5A23
:101CE000CF7E366DB709CB27663F464F2DEA5F9E04
:101CF000C7BA27757BF1E5EBF739073DEA92528ABF
:101D0000B15FFB6B085D8D1FA6F810111111813FAB
:101D1000D561C119A0012ABF7DFEB157E31DC73EA1
:101D2000EB9C2B8AE6E55ABE7CD5CF5A3AD9E53DE5
:101D3000501D00080000002014000000741A000864
:101D4000641D00081400002004040000841A000828
:101D50000000000010000000010000000024F4005A
:041D6000000000007F
:0400000508000131BD
:00000001FF
