:020000040800F2
:1000000088040020490100084D0100084F01000844
:1000100051010008530100085501000800000000CC
:100020000000000000000000000000005701000870
:1000300059010008000000005B0100085D01000894
:100040005F0100085F0100085F0100085F01000810
:100050005F0100085F0100085F0100085F01000800
:100060005F0100085F0100085F0100085F010008F0
:100070005F0100085F0100085F0100085F010008E0
:100080005F0100085F0100085F0100085F010008D0
:100090005F0100085F0100085F0100085F010008C0
:1000A0005F0100085F0100085F0100085F010008B0
:1000B0005F0100085F0100085F0100085F010008A0
:1000C0005F0100085F0100085F0100085F01000890
:1000D0005F010008A90400085F0100085F01000833
:1000E0005F0100085F0100085F0100085F01000870
:1000F0005F0100085F0100085F0100085F01000860
:100100005F0100085F0100085F0100085F0100084F
:100110005F0100085F0100085F0100085F0100083F
:100120005F0100085F0100085F0100085F0100082F
:10013000DFF810D000F016F800480047EB04000884
:10014000AFF300808804002005480047FEE7FEE783
:10015000FEE7FEE7FEE7FEE7FEE7FEE7FEE7FEE777
:1001600031010008064C074D06E0E06840F001034D
:1001700094E8070098471034AC42F6D3FFF7DCFF51
:100180001C0500083C0500082DE9F0430D46144607
:100190001E46079F002138E001228A402A400123A1
:1001A0008B409A422FD100230022072901DC0B4605
:1001B00004E0A1F1080C0CF0FF03012250F822C06A
:1001C0004FEA83094FF00F0808FA09F82CEA080CE7
:1001D00040F822C050F822C04FEA830804FA08F819
:1001E0004CEA080C40F822C050F822C04FF0020838
:1001F00008EB830806FA08F84CEA080C40F822C01D
:1002000004B9C76000BF4A1CD1B21029C4DBBDE8E5
:10021000F083000000487047040000200148008877
:1002200070470000020000200548006840F004000C
:10023000034908600846006840F0200008607047E5
:100240000C38014038B51648806944F2040108436F
:1002500013498861002002231A464915009011486D
:10026000FFF792FF002001230222510200900D4867
:10027000FFF78AFF0C48006840F400500A49086004
:100280000A2427250020091F08600846006844EA60
:10029000051108430449091F0860FFF7C5FF38BD71
:1002A00000100240000801400C3801402DE9F041E7
:1002B00004460D4616462046E11704EBD161C1F312
:1002C0004717E11704EBD1614911A4EB411101F08B
:1002D000FF08B80000F1E020D0F80001012101FA88
:1002E00008F10843B90001F1E021C1F800012846F6
:1002F00000F01AF8002104F1E02080F8001490F8D2
:100300000004184304F1E02181F80004084690F845
:100310000004691C06FA01F10843C1B204F1E020AF
:1003200080F80014BDE8F0810146064A10684FF6D7
:10033000FF021040044A02EA01221043014A106001
:10034000704700000CED00E00000FA0500BF054911
:10035000096801F080010029F9D00249091D0860EF
:10036000704700000038014010B504460B4603B941
:1003700010BD0F48006840F008000D4908600022D9
:1003800004E0A05CFFF7E2FF501C82B29A42F8DB67
:1003900000BF07480C38006800F040000028F8D083
:1003A0006FF0400002490C39086000BFE0E7000030
:1003B0000C38014000B50F48006840F001000D49BD
:1003C000086000BF0B48006800F002000028F9D068
:1003D000084800680849084006490860084600685F
:1003E00020F48020086000204860886000F006F853
:1003F00000BD000000100240FFFFF4FC2848006828
:1004000040F480302649086000BF2548006800F4A9
:1004100000300028F9D02248406840F4803020495C
:1004200048600846406820F47010486008464068FC
:1004300040F4E01048600846006840F080700860B2
:1004400000BF1748006800F000700028F9D0144879
:10045000406820F4E060124948600846406840F473
:10046000806048600F48006820F007000D49086070
:100470000846006840F0020008600948406820F023
:100480000300074948600846406840F002004860A1
:1004900000BF0348406800F00C000828F9D17047FD
:1004A0000010024000200240054800680549064A45
:1004B0001288885404480088401C0349088070470B
:1004C00004380140040000200200002002E008C8B7
:1004D000121F08C1002AFAD170477047002001E0BE
:1004E00001C1121F002AFBD17047FFF763FF0023F1
:1004F000032204212520FFF7D9FEFFF7A3FE0BE01E
:10050000FFF78CFE40B1FFF789FE0446FFF782FE3D
:1005100005462146FFF728FFF2E700003C050008EA
:100520000000002004000000CC0400084005000882
:100530000400002084040000DC0400080000000027
:0400000508000149A5
:00000001FF
