:020000040800F2
:1000000060060020B1010008B5010008B701000832
:10001000B9010008BB010008BD0100080000000094
:10002000000000000000000000000000BF01000808
:10003000C101000800000000C3010008C50100085C
:10004000C7010008C7010008C7010008C701000870
:10005000C7010008C7010008C7010008C701000860
:10006000C7010008C7010008C7010008C701000850
:10007000C7010008C7010008C7010008C701000840
:10008000C7010008C7010008C7010008C701000830
:10009000C7010008C7010008C7010008C701000820
:1000A000C7010008C7010008C7010008C701000810
:1000B000C7010008C7010008C7010008C701000800
:1000C000C7010008C7010008C7010008C7010008F0
:1000D000C7010008C7010008C7010008C7010008E0
:1000E000C7010008C7010008C7010008C7010008D0
:1000F000C7010008C7010008C7010008C7010008C0
:10010000C7010008C7010008C7010008C7010008AF
:10011000C7010008C7010008C7010008C70100089F
:10012000C7010008C7010008C7010008C70100088F
:1001300000F002F800F02CF80AA090E8000C8244CD
:100140008344AAF10107DA4501D100F021F8AFF2AA
:10015000090EBAE80F0013F0010F18BFFB1A43F0A5
:10016000010318479C030000AC0300000023002497
:1001700000250026103A28BF78C1FBD8520728BFB7
:1001800030C148BF0B6070471FB51FBD10B510BD13
:1001900000F02DF81146FFF7F7FF00F091F900F09D
:1001A0004BF803B4FFF7F2FF03BC00F053F8000074
:1001B00008480047FEE7FEE7FEE7FEE7FEE7FEE74A
:1001C000FEE7FEE7FEE7FEE703480449044A054B65
:1001D0007047000031010008600000206006002028
:1001E000600200206002002070477047704775462B
:1001F00000F02CF8AE4605006946534620F0070093
:10020000854618B020B5FFF7DFFFBDE820404FF06E
:1002100000064FF000074FF000084FF0000B21F0F0
:100220000701AC46ACE8C009ACE8C009ACE8C009BD
:10023000ACE8C0098D46704710B50446AFF30080A6
:100240002046BDE81040FFF7ACBF000000487047F3
:100250000000002001491820ABBEFEE72600020086
:10026000704710B50346002405E04FF47A7000F0A3
:1002700005F8601C84B29C42F7DB10BD00B5024655
:100280000548026000F008F900BF03480068012833
:10029000FBD800F00BF900BD240400402DE9F04329
:1002A0000D4614461E46079F002138E001228A4071
:1002B0002A4001238B409A422FD100230022072994
:1002C00001DC0B4604E0A1F1080C0CF0FF03012255
:1002D00050F822C04FEA83094FF00F0808FA09F8D6
:1002E0002CEA080C40F822C050F822C04FEA8308DC
:1002F00004FA08F84CEA080C40F822C050F822C072
:100300004FF0020808EB830806FA08F84CEA080CDC
:1003100040F822C004B9C76000BF4A1CD1B21029FE
:10032000C4DBBDE8F083000008B50B48806940F0ED
:10033000080009498861002003460222212100901B
:100340000648FFF7ABFF002005490860012005497A
:10035000C1F8940108BD000000100240000C0140EB
:10036000808121420080214200B50F48006840F0A2
:1003700001000D49086000BF0B48006800F0020052
:100380000028F9D008480068084908400649086074
:100390000846006820F480200860002048608860DB
:1003A00000F006F800BD000000100240FFFFF4FC62
:1003B0002848006840F480302649086000BF25487E
:1003C000006800F400300028F9D02248406840F46A
:1003D0008030204948600846406820F4701048602A
:1003E0000846406840F4E01048600846006840F065
:1003F0008070086000BF1748006800F00070002897
:10040000F9D01448406820F4E0601249486008467A
:10041000406840F4806048600F48006820F00700A2
:100420000D4908600846006840F00200086009486D
:10043000406820F00300074948600846406840F0E3
:100440000200486000BF0348406800F00C00082824
:10045000F9D1704700100240002002400C48C069EA
:1004600040F002000A49C86147200A49086001209B
:10047000091D086007482838006840F01000054949
:10048000283908600846006840F08000086070471E
:1004900000100240280400400348006840F00100BA
:1004A00001490860704700000004004003480068EC
:1004B00020F001000149086070470000000400407E
:1004C000FFF752FFFFF730FFFFF7C8FF15E00B48BB
:1004D000006800F0010030B90848006840F00100F1
:1004E0000649086005E00548006820F0010003495E
:1004F00008604FF47A70FFF7B4FEE8E70C0C014097
:100500001005000800000020600600006C010008D3
:04000005080001B13D
:00000001FF
