:020000040800F2
:10000000F004002049010008FD1C0008351B000811
:10001000F91C00085702000809240008000000002D
:100020000000000000000000000000002D1D00087E
:100030005B02000800000000011D00082F1D0008E1
:100040006301000863010008630100086301000800
:1000500063010008630100086301000863010008F0
:1000600063010008630100086301000863010008E0
:1000700063010008630100086301000863010008D0
:1000800063010008630100086301000863010008C0
:1000900063010008630100086301000863010008B0
:1000A00063010008630100086301000863010008A0
:1000B0006301000863010008A11D00086301000836
:1000C0006301000863010008630100086301000880
:1000D0006301000863010008630100086301000870
:1000E0006301000863010008630100086301000860
:1000F0006301000863010008630100086301000850
:10010000630100086301000863010008630100083F
:10011000630100086301000863010008630100082F
:10012000630100086301000863010008630100081F
:10013000DFF810D000F06EF800480047D126000824
:10014000AFF30080F00400200648804706480047CF
:10015000FEE7FEE7FEE7FEE7FEE7FEE7FEE7FEE777
:10016000FEE7FEE79D1D000831010008202A04DBA0
:10017000203A21FA02F00021704721FA02F3D04020
:10018000C2F120029140084319467047D2B201E003
:1001900000F8012B491EFBD270470022F6E710B58C
:1001A00013460A4604461946FFF7F0FF204610BDE5
:1001B0002DE9F05F0546002092469B46884606469C
:1001C000814640241BE02846414647462246FFF729
:1001D000CDFF53465A46C01A914110D311461846D6
:1001E000224600F029F82D1A67EB01084F462246F7
:1001F0000120002100F020F817EB00094E41201EDD
:10020000A4F10104DFDC484631462A464346BDE8F6
:10021000F09F0000064C074D06E0E06840F0010347
:1002200094E8070098471034AC42F6D3FFF784FFF8
:10023000A8270008C8270008202A04DB203A00FA73
:1002400002F1002070479140C2F1200320FA03F32D
:1002500019439040704700BFFEE7704772B600BF79
:10026000FEE700002DE9F847024600239C467BE1AB
:100270004FF0010808FA03F4D1F8008008EA0400FE
:10028000A0427DD1DFF8F4A2D1F80480A8EB0A09DE
:10029000D0453AD014DCB8F1030F50D009DCB8F1E6
:1002A000000F31D0B8F1010F1CD0B8F1020F49D1C5
:1002B00020E0B8F1110F18D0B8F1120F42D11EE0B2
:1002C000B9F5881F25D006DCB9F5803F20D0B9F5F7
:1002D000801F37D11AE0B9F5001F18D0B9F5041FF7
:1002E00030D117E0D1F80CC02DE0D1F80C8008F126
:1002F000040C28E0D1F80C8008F1080C23E0D1F8B8
:100300000C8008F10C0C1EE000BF00BF00BF00BF56
:1003100000BF00BFD1F80880B8F1000F02D14FF044
:10032000040C0BE0D1F80880B8F1010F03D14FF0B5
:10033000080C146102E04FF0080C546103E04FF028
:10034000000C00E000BF00BFFF2801D8904601E08C
:1003500002F104084646FF2802D84FEA830803E06A
:10036000A3F108084FEA88084746D6F800804FF006
:100370000F0909FA07F928EA09080CFA07F900E059
:100380007AE048EA0908C6F80080D1F8048008F04D
:100390008058B8F1805F6FD100BFDFF8E481D8F8F2
:1003A000188048F00108DFF8D891C9F81880C846CD
:1003B000D8F8188008F00108CDF8008000BF00BF11
:1003C0004FEAB9384FEA930958F829504FEA837831
:1003D0004FEA18794FF00F0808FA09F825EA0805DE
:1003E000DFF8A081424502D14FF0000824E0DFF899
:1003F0009881424502D14FF001081DE0DFF88C8161
:10040000424502D14FF0020816E0DFF884814245F0
:1004100002D14FF003080FE0DFF87881424502D1A6
:100420004FF0040808E0DFF87081424502D14FF038
:10043000050801E04FF006084FEA83794FEA197981
:1004400008FA09F848EA0505DFF850814FEA9309F0
:1004500048F82950D1F8048008F48038B8F5803F76
:100460000BD1DFF83C81D8F8008048EA0008DFF8BB
:100470003091C9F800800AE075E0DFF82481D8F8EF
:10048000008028EA0008DFF81891C9F80080D1F848
:10049000048008F40038B8F5003F0ED1DFF8008181
:1004A00008F10408D8F8008048EA0008DFF8F09066
:1004B00009F10409C9F800800DE0DFF8E48008F1D3
:1004C0000408D8F8008028EA0008DFF8D49009F181
:1004D0000409C9F80080D1F8048008F48018B8F540
:1004E000801F0ED1DFF8B88008F10808D8F8008026
:1004F00048EA0008DFF8A89009F10809C9F8008067
:100500000DE0DFF89C8008F10808D8F8008028EAA0
:100510000008DFF88C9009F10809C9F80080D1F8CB
:10052000048008F40018B8F5001F0ED1DFF87080C1
:1005300008F10C08D8F8008048EA0008DFF860905D
:1005400009F10C09C9F800800DE0DFF8548008F1CA
:100550000C08D8F8008028EA0008DFF8449009F178
:100560000C09C9F800805B1CD1F8008028FA03F858
:10057000B8F1000F7FF47CAEBDE8F88700001110E1
:100580000010024000080140000C01400010014032
:100590000014014000180140001C01400800014007
:1005A0000004014001480068704700000800002076
:1005B0000348006803490978084401490860704706
:1005C000080000201000002010B50848006840F026
:1005D000100006490860032000F0A8F8002000F091
:1005E00007F800F02BF8002010BD000000200240AA
:1005F00070B504460E4800784FF47A71B1FBF0F004
:100600000C490968B1FBF0F5284600F00BFC08B175
:10061000012070BD102C07D200222146501E00F090
:1006200047F80548046001E00120F2E70020F0E708
:1006300010000020140000200C00002008B500BFAE
:100640001148806940F001000F49886108468069BF
:1006500000F00100009000BF00BF00BF0846C06965
:1006600040F08050C8610846C06900F0805000909A
:1006700000BF00BF00BF0549486820F0E06040F0BF
:100680000070486000BF08BD00100240000001403B
:1006900001460846002809DB00F01F0301229A40AA
:1006A00043099B0003F1E023C3F8002100BF70471A
:1006B0002DE9F05F80460D461646002701F0B6FE94
:1006C000074639462A46334601F00700C0F1070ABB
:1006D000BAF1040F02D94FF0040A01E0C0F1070A91
:1006E000D14600F1040ABAF1070F02D24FF0000A16
:1006F00001E0A0F1030AD4464FF0010A0AFA09FA10
:10070000AAF1010A0AEA020A0AFA0CFA4FF0010BEE
:100710000BFA0CFBABF1010B0BEA030B4AEA0B04DF
:100720002146404601F08AFEBDE8F09F00BF00F080
:100730000702064B19684FF6FF031940044B0B43A1
:1007400043EA0221014B196000BF70470CED00E045
:100750000000FA0570B504460D460CB9012070BDC5
:100760005A48006800F00700A8420ED257480068B7
:1007700020F007002843554908600846006800F04B
:100780000700A84201D00120E9E7207800F002002C
:1007900002281DD1207800F00400042805D14C481F
:1007A000406840F4E0604A494860207800F0080062
:1007B000082805D14648406840F4605044494860E4
:1007C0004348406820F0F000A16808434049486071
:1007D000207800F0010078B36068012806D13C4819
:1007E000006800F4003090B90120B8E76068022882
:1007F00006D13748006800F0007040B90120AEE72C
:100800003348006800F0020008B90120A7E730482B
:10081000406820F00300616808432D494860FFF7F5
:10082000C1FE064609E0FFF7BDFE801B41F288319C
:10083000884202D9032092E707E02548406800F08B
:100840000C006168B0EB810FEDD12048006800F02A
:100850000700A8420ED91D48006820F00700284371
:100860001A4908600846006800F00700A84201D055
:10087000012074E7207800F00400042807D1144810
:10088000406820F4E060E16808431149486020783E
:1008900000F00800082808D10D48406820F4605096
:1008A000216940EAC1000A49486000F03FF8084960
:1008B0004968C1F30311074A515CC8400649086002
:1008C00006480068FFF794FE002048E70020024039
:1008D0000010024090270008140000200C000020A7
:1008E00001480068704700001400002000B5FFF7C1
:1008F000F7FF04494968C1F30221034A515CC8402B
:1009000000BD000000100240A027000800B5FFF75E
:10091000E7FF04494968C1F3C221034A515CC8405A
:1009200000BD000000100240A0270008F0B585B00F
:100930000FF26C0C9CE8E01001A8A0E8E0101CA5E8
:100940002D68009500210022002300240020194D6D
:10095000696801F00C05F5B1042D02D0082D19D1FC
:1009600001E0154819E001ADC1F38346AC5D01F427
:10097000803555B10F4D6D68C5F340451DF8052014
:100980000D4D6543B5FBF2F302E00C4D04FB05F39E
:10099000184602E000BF084800BF00BF05B0F0BD28
:1009A00002030405060708090A0B0C0D0E0F1010B0
:1009B000010200000010024000127A0000093D0010
:1009C000F8B504460CB90120F8BD207800F001000C
:1009D000002878D0F848406800F00C0004280CD0BB
:1009E000F548406800F00C00082811D1F248406832
:1009F00000F48030B0F5803F0AD1EF48006800F481
:100A0000003000285FD0606800285CD10120DBE75F
:100A100000BF6068B0F5803F06D1E748006840F449
:100A20008030E549086028E0606858B9E24800680D
:100A300020F48030E04908600846006820F48020F7
:100A400008601AE06068B0F5A02F0BD1DA480068A2
:100A500040F48020D84908600846006840F480309F
:100A600008600AE0D448006820F48030D249086069
:100A70000846006820F48020086000BF606888B1E4
:100A8000FFF790FD054606E0FFF78CFD401B64284C
:100A900001D9032098E7C848006800F40030002816
:100AA000F2D010E0FFF77EFD054606E0FFF77AFD85
:100AB000401B642801D9032086E7BF48006800F482
:100AC00000300028F2D1207800F00200022857D12F
:100AD000B948406800F00C0050B1B748406800F0D9
:100AE0000C00082818D1B448406800F4803098B948
:100AF000B148006800F0020020B12069012801D04F
:100B0000012061E7AC48006820F0F800616940EA24
:100B1000C100A949086033E02069E8B10120A74974
:100B20000860FFF73FFD054606E0FFF73BFD401B71
:100B3000022801D9032047E79F48006800F002001F
:100B40000028F2D09C48006820F0F800616940EA73
:100B5000C1009949086013E0002098490860FFF738
:100B600021FD054606E0FFF71DFD401B022801D9C7
:100B7000032029E79048006800F002000028F2D125
:100B8000207800F0080008282DD1A069B8B1012014
:100B90008B490860FFF706FD054606E0FFF702FDFA
:100BA000401B022801D903200EE78348406A00F069
:100BB00002000028F2D0012001F0A4F813E0002088
:100BC0007F490860FFF7EEFC054606E0FFF7EAFC08
:100BD000401B022801D90320F6E67748406A00F05E
:100BE00002000028F2D1207800F00400042873D11C
:100BF00000277148C06900F0805070B900BF6E488E
:100C0000C06940F080506C49C8610846C06900F076
:100C10008050009000BF00BF01276A48006800F4C0
:100C20008070B0B96748006840F48070654908601A
:100C3000FFF7B8FC054606E0FFF7B4FC401B64284C
:100C400001D90320C0E65F48006800F480700028E6
:100C5000F2D000BFE068012806D15748006A40F092
:100C600001005549086227E0E06858B95248006A17
:100C700020F00100504908620846006A20F0040094
:100C8000086219E0E06805280BD14B48006A40F083
:100C90000400494908620846006A40F00100086201
:100CA0000AE04548006A20F001004349086208460E
:100CB000006A20F00400086200BFE068A0B1FFF7FE
:100CC00071FC054609E0FFF76DFC401B41F28831DD
:100CD000884202D9032077E622E03748006A00F014
:100CE00002000028EFD012E0FFF75CFC054608E0A8
:100CF000FFF758FC401B41F28831884201D903209C
:100D000062E62D48006A00F002000028F0D1012FB1
:100D100005D12948C06920F080502749C86100BF2B
:100D2000E069C8B32448406800F00C00082860D08F
:100D3000E069022848D1002020490866FFF732FC0C
:100D4000054606E0FFF72EFC401B022801D90320D0
:100D50003AE61948006800F000700028F2D1206AD5
:100D6000B0F5803F07D11448406820F40030A168F6
:100D7000084311494860D4E9080108430E4949680D
:100D800021F4741108430C49486001200B4908669E
:100D9000FFF708FC054607E03DE0FFF703FC401BBA
:100DA000022801D903200FE60348006800F0007014
:100DB0000028F2D02FE00000001002400000424264
:100DC0008004424200700040002014490866FFF78A
:100DD000E9FB054606E0FFF7E5FB401B022801D9C9
:100DE0000320F1E50E48006800F000700028F2D101
:100DF00011E0E069012800D1E6E50948466806F4FB
:100E00008031206A814204D106F47011606A814207
:100E100001D00120D8E50020D6E5000000004242C4
:100E20000010024070B504462546681EB0F1807F70
:100E300001D301200FE0681E4FF0E02148610F212F
:100E40004FF0FF3001F0FAFA00204FF0E021886106
:100E500007200861002070BD7047704730B502461A
:100E60000B4600BF92F83C00012801D1022030BDA2
:100E7000012082F83C0000BF022082F83D0010688B
:100E800044681068816824F070041868044310688E
:100E90004460144D1068A84213D0134D1068A84246
:100EA0000FD01068B0F1804F0BD0104D1068A842E1
:100EB00007D00F4D1068A84203D00E4D1068A8420D
:100EC00005D121F08001586801431068816001203C
:100ED00082F83D0000BF002082F83C0000BF00BF48
:100EE000C5E70000002C0140003401400004004030
:100EF00000080040000C004010B504460CB9012069
:100F000010BD94F83D0028B9002084F83C0020462C
:100F100000F026F8022084F83D00211D206800F032
:100F200047FF012084F8460000BF84F83E000121FD
:100F30003F200155402001554120015500BF00BF11
:100F4000012084F8420043200155442001554520EA
:100F5000015500BF012084F83D000020D0E70000CB
:100F600010B586B0044600200290039004900590CE
:100F70002149206888420DD100BF2048C06940F057
:100F800002001E49C8610846C06900F002000190D5
:100F900000BF2FE01A49206888422BD100BF1748B4
:100FA000C06940F004001549C8610846C06900F0F6
:100FB0000400019000BF00BF00BF0846806940F0F8
:100FC000080088610846806900F00800019000BFB1
:100FD00000BF4020029000200390049002A909481D
:100FE000FFF740F9002211461E20FFF761FB1E208B
:100FF000FFF74EFB06B010BD000400400010024099
:1010000000080040000C01402DE9F04104460D4667
:1010100000BF94F83C00012802D10220BDE8F08115
:10102000012084F83C0000BF022084F83D002068C5
:10103000866826F0770626F47F4620688660286852
:10104000502833D00CDC202850D004DC00284BD0B2
:10105000102851D149E0302849D040284CD139E0FE
:1010600060282DD0702807D0B0F5805F03D0B0F590
:10107000005F41D10DE040E0D5E902136A682068C5
:1010800000F0F5FE2068866846F0770620688660E6
:1010900033E0D5E902136A68206800F0E8FE2068B2
:1010A000806840F480402168886026E0EA686968CA
:1010B000206800F0CDFF5021206800F0E3FE1CE026
:1010C000EA686968206801F015F86021206800F07E
:1010D000D9FE12E0EA686968206800F0B9FF402193
:1010E000206800F0CFFE08E000BF00BF00BF296805
:1010F000206800F0C7FE00E000BF00BF012084F8B8
:101100003D0000BF002084F83C0000BF00BF85E721
:1011100010B504463348844262D13348007800F069
:10112000800000285CD13048007800F04000D0B149
:101130002D48007840F080002B4908700021294894
:1011400000F006FC2949086026480068006A20F083
:101150000A0024490968086222480068006A214997
:10116000096808623CE000BF1E480068006A41F25E
:101170001111084068B91B480068006A89100840CE
:1011800038B918480068006820F00100154909685E
:10119000086000BF0020144908700846007840F03D
:1011A000400008700020114908600E490968486233
:1011B0000C480068006A20F00A000A4909680862C1
:1011C00008480068006A40F00200064909680862A1
:1011D00004480068006840F001000249096808609E
:1011E00010BD00006400002000000020040000206A
:1011F0002DE9F04104460D46164600BF94F83C0028
:10120000012802D10220BDE8F081012084F83C00D1
:1012100000BF96B9EB68D5E90012206800F02CFFFA
:101220002068806920F00C0021688861206880694E
:10123000A9680843216888613DE0042E13D1EB685A
:10124000D5E90012206800F069FF2068806920F469
:1012500040602168886120688069A96840EA0120AF
:101260002168886127E0082E12D1EB68D5E90012C9
:10127000206800F070FF2068C06920F00C00216831
:10128000C8612068C069A96808432168C86112E084
:10129000EB68D5E90012206800F079FF2068C0698A
:1012A00020F440602168C8612068C069A96840EAEC
:1012B00001202168C86100BF002084F83C0000BF05
:1012C00000BFA0E710B504460CB9012010BD94F88A
:1012D0003D0028B9002084F83C00204600F025F8A5
:1012E000022084F83D00211D206800F061FD0120EE
:1012F00084F8460000BF84F83E0001213F200155DC
:10130000402001554120015500BF00BF012084F855
:10131000420043200155442001554520015500BF9E
:10132000012084F83D000020D0E770472DE9F0410E
:1013300004460D4615B994F83E000BE0042D02D189
:101340003F20005D06E0082D02D14020005D01E055
:101350004120005D074615B994F842000BE0042DCA
:1013600002D14320005D06E0082D02D14420005D3B
:1013700001E04520005D8046012F02D1B8F1010F48
:1013800002D00120BDE8F0811DB9022084F83E00A2
:101390000EE0042D03D102213F20015508E0082D65
:1013A00003D102214020015502E0022141200155D4
:1013B0001DB9022084F842000EE0042D03D1022161
:1013C0004320015508E0082D03D102214420015596
:1013D00002E002214520015535B1042D0BD0082D26
:1013E00010D00C2D1CD114E02068C06840F0020021
:1013F0002168C86015E02068C06840F004002168DA
:10140000C8600EE02068C06840F008002168C8602D
:1014100007E02068C06840F010002168C86000E064
:1014200000BF00BF01222946206800F00FFD1649C9
:101430002068884213D01549206888420FD0206860
:10144000B0F1804F0BD012492068884207D0114973
:101450002068884203D01049206888420CD1206857
:10146000806800F00706062E0CD02068006840F067
:1014700001002168086005E02068006840F0010074
:101480002168086000207DE7002C01400034014005
:101490000004004000080040000C004010B5044665
:1014A00020680069C0F34000D8B12068C068C0F36C
:1014B0004000B0B16FF00200216808610120207780
:1014C0002068806900F0030018B12046FFF720FE75
:1014D00005E0204600F0DAF8204600F08AF9002006
:1014E000207720680069C0F38000D8B12068C06808
:1014F000C0F38000B0B16FF00400216808610220E1
:1015000020772068806900F4407018B12046FFF70A
:10151000FFFD05E0204600F0B9F8204600F069F92B
:101520000020207720680069C0F3C000D8B120688F
:10153000C068C0F3C000B0B16FF008002168086156
:10154000042020772068C06900F0030018B120460D
:10155000FFF7DEFD05E0204600F098F8204600F099
:1015600048F90020207720680069C0F30010D8B146
:101570002068C068C0F30010B0B16FF0100021689F
:101580000861082020772068C06900F4407018B115
:101590002046FFF7BDFD05E0204600F077F8204625
:1015A00000F027F9002020772068006900F0010092
:1015B00058B12068C06800F0010030B16FF0010040
:1015C00021680861204600F08FF920680069C0F3A7
:1015D000C01058B12068C068C0F3C01030B16FF0BF
:1015E0008000216808612046FFF736FC206800690A
:1015F000C0F3801058B12068C068C0F3801030B1CB
:101600006FF0400021680861204600F0BAF92068B8
:101610000069C0F3401058B12068C068C0F34010A2
:1016200030B16FF02000216808612046FFF715FCFB
:1016300010BD000010B586B0044600200290039053
:10164000049005900E492068884216D100BF0D48CD
:10165000806940F004000B4988610846806900F009
:101660000400019000BF00BF4020029002200390C0
:10167000059002A90448FEF7F5FD06B010BD000074
:10168000000400400010024000080140704770B59F
:1016900004460D46164600BF94F83C00012801D1CF
:1016A000022070BD012084F83C0000BF36B1042E3A
:1016B0001BD0082E31D00C2E5ED145E02946206883
:1016C00000F0EAFB2068806940F00800216888612A
:1016D0002068806920F004002168886120688069A2
:1016E000296908432168886147E02946206800F09D
:1016F0000BFC2068806940F40060216888612068E4
:10170000806920F480602168886120688069296987
:1017100040EA0120216888612FE02946206800F016
:1017200031FC2068C06940F008002168C861206869
:10173000C06920F004002168C8612068C069296977
:1017400008432168C86118E02946206800F056FC6B
:101750002068C06940F400602168C8612068C069E1
:1017600020F480602168C8612068C069296940EA66
:1017700001202168C86100E000BF00BF00BF002059
:1017800084F83C0000BF00BF8BE710B504460CB9DD
:10179000012010BD94F83D0028B9002084F83C00D9
:1017A000204600F025F8022084F83D00211D206825
:1017B00000F0FEFA012084F8460000BF84F83E00E5
:1017C00001213F200155402001554120015500BF16
:1017D00000BF012084F842004320015544200155F8
:1017E0004520015500BF012084F83D000020D0E7CE
:1017F0007047704770B504460D4615B994F83E0021
:101800000BE0042D02D13F20005D06E0082D02D13F
:101810004020005D01E04120005D012801D0012051
:1018200070BD1DB9022084F83E000EE0042D03D1E6
:1018300002213F20015508E0082D03D1022140205C
:10184000015502E00221412001550122294620686C
:1018500000F0FCFA1F492068884203D01E49206826
:10186000884201D1012000E0002028B12068406CAE
:1018700040F400402168486416492068884213D02B
:101880001549206888420FD02068B0F1804F0BD0F6
:1018900012492068884207D011492068884203D045
:1018A0001049206888420CD12068806800F0070643
:1018B000062E0CD02068006840F001002168086006
:1018C00005E02068006840F0010021680860002001
:1018D000A6E70000002C0140003401400004004055
:1018E00000080040000C00401649884228D11649E3
:1018F000097801F0800119BB1349097801F0400112
:10190000F1B11149097801F03F013F290FD10E498A
:10191000097841F080010C4A11701146097821F0D4
:101920003F0111704FF0FF31084A116008E006498D
:101930000978491C044A11700021024A1268516258
:101940007047000064000020000000200400002018
:101950000246002031B1042907D0082908D00C29FB
:101960000CD108E01368586B09E01368986B06E027
:101970001368D86B03E01368186C00E000BF00BF69
:101980007047704710B504460CB9012010BD94F89B
:101990003D0028B9002084F83C00204600F020F8E3
:1019A000022084F83D00204600F010FC2068006909
:1019B00020F48040216808612068406920F02A00F6
:1019C000216848612068C06840F400502168C86000
:1019D00000202064012084F83D000020D6E70000AC
:1019E00010B586B004460020029003900490059044
:1019F0001A49206888422FD100BF1948806940F4F5
:101A00008040174988610846806900F48040019051
:101A100000BF00BF00BF0846806940F00400886135
:101A20000846806900F00400019000BF00BF4FF439
:101A300040700290022003900320059002A90948FB
:101A4000FEF710FC4FF48060029000200390049099
:101A500002A90448FEF706FC06B010BD003801409C
:101A600000100240000801402DE9F84F04460E46E0
:101A70001746994694F83D00012859D106B117B987
:101A80000120BDE8F88F00BF94F83C00012801D187
:101A90000220F6E7012084F83C0000BF002020640B
:101AA000122084F83D00FEF77DFD8246278567857C
:101AB000A068B0F5805F04D1206910B90025B04658
:101AC00002E035464FF000081BE05346002280211B
:101AD0002046CDF8009000F057FC08B10320D0E775
:101AE00045B9B8F80000C0F308002168486008F163
:101AF000020803E02878216848606D1C608D401E54
:101B00006085608D0028E0D15346002240212046A8
:101B1000CDF8009000F038FC08B10320B1E70120B7
:101B200084F83D0000BF002084F83C0000BFA8E717
:101B30000220A6E700BFFEE708B500BF0D48806998
:101B400040F004000B4988610846806900F00400F9
:101B5000009000BF00BF00BF0846806940F0080049
:101B600088610846806900F00800009000BF00BF4F
:101B700008BD00000010024000B58DB000200990A3
:101B80000A900B900C90079008901C216846FEF775
:101B900004FB21482149086041F61F4048600021AC
:101BA0001E48816040F2CF71C160002101618161F6
:101BB000FFF7A2F908B1FEF751FB4FF480500990EE
:101BC00009A91648FFF720FA08B1FEF747FB1348AA
:101BD000FFF7DBFD08B1FEF741FB002007900890FE
:101BE00007A90E48FFF73AF908B1FEF737FB602066
:101BF00000904FF47A70019000200290049000222F
:101C000069460648FFF743FD08B1FEF727FB034886
:101C1000FFF710FD0DB000BD000400401C000020C7
:101C200000B58BB000200790089009900A900590AD
:101C3000069001900290039004901F481F4908608D
:101C40004720486000211D48816042F20F71C16049
:101C5000002101618161FFF74FF908B1FEF7FEFA3B
:101C60004FF48050079007A91448FFF7CDF908B149
:101C7000FEF7F4FA1148FFF725FB08B1FEF7EEFA7C
:101C800000200590069005A90C48FFF7E7F808B179
:101C9000FEF7E4FA0020019001200290002003905A
:101CA0000490002201A90548FFF7A2FA08B1FEF747
:101CB000D5FA0BB000BD0000000800406400002011
:101CC00010B50B480B4908604FF4E1304860002123
:101CD00008488160C16001610C214161002181617E
:101CE000C1610162FFF74EFE08B1FEF7B7FA10BD01
:101CF00000380140AC00002000BFFEE700BFFEE757
:101D00007047000008B508490968C9084FF47A729D
:101D1000B1FBF2F14143009100BF00BF00994A1EA0
:101D200000920029F9D108BD14000020704710B5B9
:101D3000FEF73EFC10BD00B58FB0282105A8FEF7C8
:101D40002CFA14216846FEF728FA012005900004B9
:101D50000690002007900120099002200C90C103FA
:101D60000D914FF4E0110E9105A8FEF729FE08B180
:101D7000FEF774FA0F2000900220019000200290DC
:101D80004FF4806003900020049002216846FEF723
:101D9000E1FC08B1FEF762FA0FB000BD7047000029
:101DA00010B50248FFF77AFB10BD00006400002068
:101DB00010B50268204B98420ED0204B98420BD0B1
:101DC000B0F1804F08D01E4B984205D01D4B984271
:101DD00002D01D4B984203D122F070024B681A4387
:101DE000154B98420ED0154B98420BD0B0F1804F56
:101DF00008D0134B984205D0124B984202D0124B98
:101E0000984203D122F44072CB681A4322F0800337
:101E10004C6943EA040202608B68C3620B68836208
:101E2000054B984202D0054B984201D10B690363E0
:101E30000123436110BD0000002C0140003401402B
:101E40000004004000080040000C004030B501F0E4
:101E50001F05012404FA05F3046A9C430462046A22
:101E600001F01F0502FA05F52C43046230BD30B5C0
:101E70000C46816821F47F4142EA0325254329432A
:101E8000816030BD0A46816821F0700142F007038D
:101E9000194381607047000030B5056A25F00105DF
:101EA0000562026A4368846924F0700424F0030424
:101EB0000D682C4322F002028D682A43104DA8427F
:101EC00000D103E00F4DA84206D100BF22F0080266
:101ED000CD682A4322F00402094DA84202D0094DE0
:101EE000A84207D123F4807323F400734D692B4378
:101EF0008D692B43436084614D684563026230BD48
:101F0000002C01400034014030B5056A25F0100571
:101F10000562026A4368846924F4E04424F440744E
:101F20000D6844EA052422F020028D6842EA051279
:101F3000124DA84200D103E0114DA84207D100BFC5
:101F400022F08002CD6842EA051222F040020B4DD9
:101F5000A84202D00A4DA84209D123F4806323F499
:101F600000634D6943EA85038D6943EA8503436055
:101F700084614D688563026230BD0000002C014021
:101F80000034014030B5056A25F480750562026AA7
:101F90004368C46924F0700424F003040D682C43E2
:101FA00022F400728D6842EA0522124DA84200D147
:101FB00003E0114DA84207D100BF22F40062CD68B2
:101FC00042EA052222F480620A4DA84202D00A4D5C
:101FD000A84209D123F4805323F400534D6943EA06
:101FE00005138D6943EA05134360C4614D68C563F9
:101FF000026230BD002C01400034014030B5056A5A
:1020000025F480550562036A4468C26922F4E042FF
:1020100022F440720D6842EA052223F400538D68D1
:1020200043EA0533084DA84202D0084DA84204D126
:1020300024F480444D6944EA85144460C2614D68CB
:102040000564036230BD0000002C014000340140F3
:1020500030B50B461446026A056A25F00105056293
:10206000816921F0F00141EA041122F00A021A43C9
:102070008161026230BD000070B50C461546066AEB
:1020800026F0010606628169026A154EB0420ED042
:10209000144EB0420BD0B0F1804F08D0124EB04277
:1020A00005D0124EB04202D0114EB04201D10126ED
:1020B00000E000261EB121F00301294301E041F0B8
:1020C000010121F0F001F02606EA0316314322F067
:1020D0000A0204F00A0632438161026270BD000008
:1020E000002C014000340140000400400008004082
:1020F000000C004030B50B461446056A25F010056B
:1021000005628169026A21F4704141EA043122F0DA
:10211000A00242EA03128161026230BD70B50C4632
:102120001546066A26F0100606628169026A21F4E5
:10213000407141EA052121F470414FF4704606EAEE
:102140000336314322F0A002A02606EA04163243E9
:102150008161026270BD70B50C461546066A26F4B0
:1021600080760662C169026A21F00301294321F0E9
:10217000F001F02606EA0316314322F400724FF410
:10218000007606EA04263243C161026270BD70B572
:102190000C461546066A26F480560662C169026A34
:1021A00021F4407141EA052121F470414FF4704659
:1021B00006EA0336314322F400524FF4005606EA91
:1021C00004363243C161026270BD000070B504463E
:1021D00000252168C96821F00C012268D1602168BE
:1021E0000D6925F47C55A16941F40061E269114350
:1021F000226A1143E26811430D4321680D61216891
:10220000CD6841F20C618D432269A1681143626976
:1022100011430D432168CD602168496921F4407163
:1022200022685161574A2168914255D1FEF76EFBF1
:1022300000EBC00101EB001162689200B1FBF2F10A
:102240006422B1FBF2F10A0100EBC00101EB0011C5
:1022500063689B00B1FBF3F100EBC00303EB0013D9
:102260006668B600B3FBF6F36426B3FBF6F303EB44
:10227000C30606EB0313A1EB8301322303EB011129
:102280006423B1FBF3F101F0F00102EB410200EB3A
:10229000C00101EB001163689B00B1FBF3F100EB9F
:1022A000C00303EB00136668B600B3FBF6F36426C5
:1022B000B3FBF6F303EBC30606EB0313A1EB8301B9
:1022C000322303EB01116423B1FBF3F101F00F01A1
:1022D00011442268916054E0FEF708FB00EBC00156
:1022E00001EB001162689200B1FBF2F16422B1FBD4
:1022F000F2F10A0100EBC00101EB001163689B00E1
:10230000B1FBF3F100EBC00303EB00136668B6000A
:10231000B3FBF6F36426B3FBF6F303EBC30606EB5D
:102320000313A1EB8301322303EB01116423B1FBFF
:10233000F3F101F0F00102EB410200EBC00101EB0F
:10234000001163689B00B1FBF3F100EBC00303EBEA
:1023500000136668B600B3FBF6F36426B3FBF6F32E
:1023600003EBC30606EB0313A1EB8301322303EB5C
:1023700001116423B1FBF3F101F00F011144226854
:10238000916070BD003801402DE9F04104460D46D2
:1023900017469846069E2BE0701C48B32EB1FEF7F8
:1023A00001F9A0EB0800B04222D92068C06820F0F3
:1023B00080002168C8602068C06820F02000216883
:1023C000C8602068C06820F480702168C8602068F8
:1023D000406920F0010021684861012084F83D0037
:1023E00000BF002084F83C0000BF0320BDE8F0815E
:1023F000206800682840A84201D1012000E00020A8
:10240000B842C9D00020F1E700BFFEE70FB4054B8A
:1024100010B503A9044A029800F034F810BC5DF826
:1024200014FB0000B12600081800002002480068D4
:10243000C0F30220704700000CED00E010B500284A
:1024400004DB0A07130E054A135406E00A07140EAC
:10245000034A00F00F031B1FD45410BD00E400E03A
:1024600018ED00E002E008C8121F08C1002AFAD1E6
:1024700070477047002001E001C1121F002AFBD104
:10248000704700002DE9FF4F8BB09A460F46044677
:10249000002606E025280BD052460D999047641C73
:1024A000761C20780028F5D10FB03046BDE8F08FBB
:1024B0000025A94601227D4900E0054314F8013FAB
:1024C000203B02FA03F00842F7D120782E2817D1DA
:1024D00014F8010F45F004052A280ED06FF02F02E2
:1024E0002078A0F1300109290AD809EB890102EB13
:1024F000410100EB0109641CF2E757F8049B641CDE
:1025000020786C280DD004DC4C2812D06A2811D118
:1025100004E074280DD07A280CD10AE045F40015A7
:1025200007E0617845F48015814202D1641C05F50D
:102530008015641C207869283ED006DC0028B3D0C2
:1025400063280BD0642804D136E0732810D0752896
:102550005CD052460D999047761CA5E017F8040B05
:102560008DF8000000208DF80100E846012003E00E
:1025700057F8048B4FF0FF3069074FF0000501D486
:102580000AE06D1C4D450DDA8542FADB18F805109E
:102590000029F6D106E06D1C8542FCDB18F8051019
:1025A0000029F8D12E4404E018F8010B52460D9989
:1025B00090476D1EF8D277E000200A90C5F30250D4
:1025C0004FF00A0B02280CD001CFC117021E71F187
:1025D00000020CDA0023D0EB030063EB01012D2293
:1025E00008E0FF1D27F00707F7E80201EEE72A05DC
:1025F00004D52B228DF82420012203E0EA070FD016
:102600002022F7E70DF12008089218E000200A9038
:10261000C5F302504FF00A0B022803D001CF00216E
:102620000022EFE7FF1D27F00707F7E80201F7E7B1
:102630005A460A9BFDF7BCFD303208F8012D50EADE
:102640000102F5D1ADEB080000F1200B680701D4C1
:102650004FF00109D94502DDA9EB0B0000E0002095
:102660008146002506E009A85246405D0D99904735
:102670006D1C761C08988542F5DB04E0302052463C
:102680000D999047761CB9F10001A9F10109F5DC1B
:1026900005E018F8010B52460D999047761CBBF1E6
:1026A0000001ABF1010BF4DC641CFAE6092801001F
:1026B00038B504460D46E0B200900A23012269466F
:1026C0000248FFF7D1F9204638BD0000AC000020D9
:1026D00000BFFDF779FFFFF72EFBFFF72DFAFFF79D
:1026E0004BFAFFF79DFAFFF7EBFA1C480068C06849
:1026F00040F0010019490968C86000211748FEF739
:1027000015FE00211648FFF775F826E015480078F9
:1027100000F0800008B31348007800F03F04002662
:102720002546214610A0FFF771FE0C48C068401CEA
:1027300000212C46A0FB042701FB057100FB0610BD
:102740000F490968551840F100062A4633460DA086
:10275000FFF75CFE002003490870D7E76400002003
:102760001C000020000000204F766572466C6F77D9
:10277000436F756E74203D2025640D0A0000000033
:1027800004000020484947483A256C6C640D0A0053
:102790000000000000000000010203040607080911
:1027A0000000000001020304C82700080000002008
:1027B0001C00000064240008E42700081C0000201E
:1027C000D404000074240008000000000000000091
:1027D0000000000010000000010000000024F400D0
:0427E00000000000F5
:0400000508000131BD
:00000001FF
