:020000040800F2
:1000000068060020B1010008B5010008B70100082A
:10001000B9010008BB010008BD0100080000000094
:10002000000000000000000000000000BF01000808
:10003000C101000800000000C3010008C50100085C
:10004000C7010008C7010008C7010008C701000870
:10005000C7010008C7010008C1030008C701000864
:10006000C7010008C7010008C7010008C701000850
:10007000C7010008C7010008C7010008C701000840
:10008000C7010008C7010008C7010008C701000830
:10009000C7010008C7010008C7010008C701000820
:1000A000C7010008C7010008C7010008C701000810
:1000B000C7010008C7010008C7010008C701000800
:1000C000C7010008C7010008C7010008C7010008F0
:1000D000C7010008C7010008C7010008C7010008E0
:1000E000C7010008C7010008C7010008C7010008D0
:1000F000C7010008C7010008C7010008C7010008C0
:10010000C7010008C7010008C7010008C7010008AF
:10011000C7010008C7010008C7010008C70100089F
:10012000C7010008C7010008C7010008C70100088F
:1001300000F002F800F02CF80AA090E8000C8244CD
:100140008344AAF10107DA4501D100F021F8AFF2AA
:10015000090EBAE80F0013F0010F18BFFB1A43F0A5
:1001600001031847680700007807000000230024F7
:1001700000250026103A28BF78C1FBD8520728BFB7
:1001800030C148BF0B6070471FB51FBD10B510BD13
:1001900000F02DF81146FFF7F7FF00F075FB00F0B7
:1001A0004BF803B4FFF7F2FF03BC00F053F8000074
:1001B00008480047FEE7FEE7FEE7FEE7FEE7FEE74A
:1001C000FEE7FEE7FEE7FEE703480449044A054B65
:1001D0007047000031010008680000206806002018
:1001E000680200206802002070477047704775461B
:1001F00000F02CF8AE4605006946534620F0070093
:10020000854618B020B5FFF7DFFFBDE820404FF06E
:1002100000064FF000074FF000084FF0000BAC460F
:10022000ACE8C009ACE8C009ACE8C009ACE8C0095A
:1002300021F007018D46704710B50446AFF30080EA
:100240002046BDE81040FFF7ACBF000000487047F3
:100250000000002001491820ABBEFEE72600020086
:100260007047000080B582B0ADF80600BDF80610FA
:1002700044F6D350C1F26200A1FB00214909ADF858
:100280000410BDF80620A2FB001040094FF4FA71DB
:1002900000FB1120ADF80200FFE7BDF804000128C3
:1002A0000ADBFFE74FF4FA7000F00CF8BDF8040029
:1002B0000138ADF80400F0E7BDF8020000F002F8E4
:1002C00002B080BD84B0ADF80E000020029040F274
:1002D0006000C2F20000007838B1FFE74EF218006B
:1002E000CEF2000000680290FFE742F22830ADF83D
:1002F0000600BDF80600BDF80E10484300909DF8BA
:10030000030018B9FFE7009808B9FFE755E0009827
:100310004EF21401CEF2000108604EF21801CEF246
:100320000001002008604EF21001CEF200010868C2
:1003300020F004000860086840F00100086040F206
:100340006001C2F20001087801300870FFE74EF248
:100350001000CEF200000068C003002801D4FFE7BF
:10036000F5E740F26000C2F2000001780139017047
:10037000007848B9FFE74EF21001CEF2000108689C
:1003800020F00100086018E04EF21001CEF20001EA
:10039000086820F00100086002984EF21402CEF2C4
:1003A000000210604EF21802CEF20002002010602F
:1003B000086840F001000860FFE704B070470000E3
:1003C00080B582B01420FFF74DFF40F20010C4F258
:1003D0002120006898B9FFE748F29411C4F2212166
:1003E0000091002008604FF4FA600190FFF73AFF97
:1003F000009A019801211160FFF734FFFFE702B076
:1004000080BD000080B500F0E9F841200021012204
:1004100000F002F880BD000082B08DF807008DF872
:1004200006108DF805209DF8060080088DF8040060
:100430009DF8060000F0030080008DF8030041F2F3
:100440001801C4F20201086840F0010008609DF83C
:1004500003100F2000FA01F39DF804200821C4F2D4
:10046000010151F82200984341F822009DF807004D
:1004700041389DF8032000FA02F39DF8042051F85A
:100480002200184341F822009DF8050001280DD1F3
:10049000FFE79DF80610012000FA01F240F20C413E
:1004A000C4F201010868104308600CE09DF80610D2
:1004B000012000FA01F240F20841C4F2010108688B
:1004C00010430860FFE79DF80610012000FA01F2D2
:1004D00040F20041C4F2010108681043086002B014
:1004E0007047000080B583B084460598CDF808C0F9
:1004F000ADF806108DF805208DF804308DF8030056
:1005000000208DF80200FFE79DF802000F2862DC52
:10051000FFE7BDF806009DF80210C840C00700289C
:1005200052D0FFE700208DF801008DF800009DF803
:100530000200072808DCFFE79DF802008DF80100A3
:1005400000208DF8000008E09DF8020008388DF8C2
:10055000010001208DF80000FFE79DF801008100F7
:100560000F2000FA01F302999DF8002051F82200B3
:10057000984341F822009DF805009DF8011089007C
:1005800000FA01F302999DF8002051F82200184367
:1005900041F822009DF804009DF801108900023105
:1005A00000FA01F302999DF8002051F82200184347
:1005B00041F822009DF8050028B9FFE79DF80300E7
:1005C0000299C860FFE7FFE7FFE79DF802000130EE
:1005D0008DF8020098E703B080BD000080B584B0BC
:1005E00041F21801C4F20201086840F4AA700860E0
:1005F000684600220292026040F60000C4F2010048
:10060000012303931946FFF76DFF029A039B684687
:10061000026041F20000C4F201004FF40051FFF704
:1006200061FF029A039B6846026041F60000C4F233
:1006300001000821FFF756FF029A039B68460260FB
:1006400042F20000C4F201004FF40041FFF74AFFFC
:1006500004B080BD80B582B041F21801C4F202013D
:10066000086840F00800086068460023036040F610
:100670000040C4F2010021210222FFF733FF48F2BB
:100680008011C4F221210120086048F29411C4F2C3
:100690002121086002B080BD80B50620042103221C
:1006A000002300F001F880BD80B582B08DF807000E
:1006B0008DF806108DF805208DF804309DF80700A0
:1006C00040098DF803009DF8070000F01F008DF829
:1006D00002009DF80210012000FA01F39DF80320AA
:1006E0004EF20011CEF2000151F82200184341F8F9
:1006F00022009DF8060000F01DF89DF807104EF24C
:100700000042CEF20002002088549DF804309DF88B
:100710000710885C184388549DF805009DF8061062
:10072000013100FA01F39DF80710885C18438854E2
:1007300002B080BD82B08DF807004EF60C51CEF2AB
:1007400000010868009000984FF6FF0210400090EA
:100750000098086002B0704780B541F20001C4F211
:100760000201086840F001000860FFE741F2000064
:10077000C4F2020000688007002801D4FFE7F5E713
:1007800041F20001C4F2020108684FF6FF72CFF691
:10079000F44210400860086820F48020086041F2AC
:1007A0000401C4F202010020086041F20801C4F211
:1007B0000201086000F002F880BD000081B041F243
:1007C0000001C4F20201086840F480300860FFE7CD
:1007D00041F20000C4F2020000688003002801D446
:1007E000FFE7F5E741F20401C4F20201086840F4B2
:1007F00080300860086820F470100860086840F4D1
:10080000E010086041F20001C4F20201086840F003
:1008100080700860FFE741F20000C4F20200006847
:100820008001002801D4FFE7F5E741F20401C4F29A
:1008300002010091086820F4E0600860086840F454
:100840008060086042F20002C4F20202106820F0E8
:1008500007001060106840F002001060086820F087
:1008600003000860086840F002000860FFE741F2FA
:100870000400C4F20200006800F00C00082801D057
:10088000FFE7F4E701B0704780B584B00020039023
:10089000FFF762FFFFF7DEFEFFF7A0FEFFF7B2FDF6
:1008A000FFF7FAFEFFE748F28011C4F2212101911F
:1008B000002008604FF47A700290FFF7D3FC019A91
:1008C000029801211160FFF7CDFCECE7DC0800087D
:0C08D00000000020680600006C01000819
:04000005080001B13D
:00000001FF
