:020000040800F2
:1000000000040020490100084D0100084F010008CC
:1000100051010008530100085501000800000000CC
:100020000000000000000000000000005701000870
:1000300059010008000000005B0100085D01000894
:100040005F0100085F0100085F0100085F01000810
:100050005F0100085F0100085F0100085F01000800
:100060005F0100085F0100085F0100085F010008F0
:100070005F0100085F0100085F0100085F010008E0
:100080005F0100085F0100085F0100085F010008D0
:100090005F0100085F0100085F0100085F010008C0
:1000A0005F0100085F0100085F0100085F010008B0
:1000B0005F0100085F0100085F0100085F010008A0
:1000C0005F0100085F0100085F0100085F01000890
:1000D0005F0100085F0100085F0100085F01000880
:1000E0005F0100085F0100085F0100085F01000870
:1000F0005F0100085F0100085F0100085F01000860
:100100005F0100085F0100085F0100085F0100084F
:100110005F0100085F0100085F0100085F0100083F
:100120005F0100085F0100085F0100085F0100082F
:10013000DFF810D000F016F800480047050200086C
:10014000AFF300800004002005480047FEE7FEE70B
:10015000FEE7FEE7FEE7FEE7FEE7FEE7FEE7FEE777
:1001600031010008064C074D06E0E06840F001034D
:1001700094E8070098471034AC42F6D3FFF7DCFF51
:100180003002000840020008002009E0002101E0E0
:100190004A1C91B242F210729142F9DB421C90B2B9
:1001A000C828F3DB704700000C48806940F0080065
:1001B0000A4988610A48006820F488700849086084
:1001C0000846006840F02000086005480C300068D0
:1001D00040F0020002490C310860704700100240F4
:1001E000000C014002E008C8121F08C1002AFAD121
:1001F00070477047002001E001C1121F002AFBD1A7
:1002000070470000FFF7D0FF0FE00848006820F0BB
:10021000020006490860FFF7B7FF0448006840F095
:10022000020002490860FFF7AFFFEEE70C0C014047
:10023000400200080000002000040000F401000853
:0400000508000149A5
:00000001FF
