:020000040800F2
:1000000060060020B1010008B5010008B701000832
:10001000B9010008BB010008BD0100080000000094
:10002000000000000000000000000000BF01000808
:10003000C101000800000000C3010008C50100085C
:10004000C7010008C7010008C7010008C701000870
:10005000C7010008C7010008C7010008C701000860
:10006000C7010008C7010008C7010008C701000850
:10007000C7010008C7010008C7010008C701000840
:10008000C7010008C7010008C7010008C701000830
:10009000C7010008C7010008C7010008C701000820
:1000A000C7010008C7010008C7010008C701000810
:1000B000C7010008C7010008C7010008C701000800
:1000C000C7010008C7010008C7010008C7010008F0
:1000D000C7010008C7010008C7010008C7010008E0
:1000E000C7010008C7010008C7010008C7010008D0
:1000F000C7010008C7010008C7010008C7010008C0
:10010000C7010008C7010008C7010008C7010008AF
:10011000C7010008C7010008C7010008C70100089F
:10012000C7010008C7010008C7010008C70100088F
:1001300000F002F800F02CF80AA090E8000C8244CD
:100140008344AAF10107DA4501D100F021F8AFF2AA
:10015000090EBAE80F0013F0010F18BFFB1A43F0A5
:1001600001031847E0020000F00200000023002411
:1001700000250026103A28BF78C1FBD8520728BFB7
:1001800030C148BF0B6070471FB51FBD10B510BD13
:1001900000F02DF81146FFF7F7FF00F04BF900F0E3
:1001A0004BF803B4FFF7F2FF03BC00F053F8000074
:1001B00008480047FEE7FEE7FEE7FEE7FEE7FEE74A
:1001C000FEE7FEE7FEE7FEE703480449044A054B65
:1001D0007047000031010008600000206006002028
:1001E000600200206002002070477047704775462B
:1001F00000F02CF8AE4605006946534620F0070093
:10020000854618B020B5FFF7DFFFBDE820404FF06E
:1002100000064FF000074FF000084FF0000B21F0F0
:100220000701AC46ACE8C009ACE8C009ACE8C009BD
:10023000ACE8C0098D46704710B50446AFF30080A6
:100240002046BDE81040FFF7ACBF000000487047F3
:100250000000002001491820ABBEFEE72600020086
:100260007047000000B50F48006840F001000D49DC
:10027000086000BF0B48006800F002000028F9D0B9
:1002800008480068084908400649086008460068B0
:1002900020F48020086000204860886000F006F8A4
:1002A00000BD000000100240FFFFF4FC2848006879
:1002B00040F480302649086000BF2548006800F4FB
:1002C00000300028F9D02248406840F480302049AE
:1002D00048600846406820F470104860084640684E
:1002E00040F4E01048600846006840F08070086004
:1002F00000BF1748006800F000700028F9D01448CB
:10030000406820F4E060124948600846406840F4C4
:10031000806048600F48006820F007000D490860C1
:100320000846006840F0020008600948406820F074
:100330000300074948600846406840F002004860F2
:1003400000BF0348406800F00C000828F9D170474E
:1003500000100240002002402A48C06940F002001C
:100360002849C86141F61F402749086040F2CF7014
:10037000091D086024482838006840F01000224910
:10038000283908600846006840F0800008601E4870
:100390000C38006820F003001B490C39086008463F
:1003A000006840F0040008600846006840F008005B
:1003B00008600846006820F0700008600846006881
:1003C00040F0600008604FF47A700F491431086003
:1003D0000D480838006820F400700B49083908609F
:1003E0000848806940F008000649886107480068AD
:1003F00020F00F00054908600846006840F00A0038
:10040000086070470010024028040040000C0140C2
:100410000748006840F480700549086004482038A7
:10042000006840F001000249203908607047000070
:1004300020040040FFF716FFFFF78EFFFFF7E8FFED
:1004400000BFFEE754040008000000206006000022
:040450006C01000833
:04000005080001B13D
:00000001FF
