:020000040800F2
:1000000060060020B1010008B5010008B701000832
:10001000B9010008BB010008BD0100080000000094
:10002000000000000000000000000000BF01000808
:10003000C101000800000000C3010008C50100085C
:10004000C7010008C7010008C7010008C701000870
:10005000C7010008C7010008C7010008C701000860
:10006000C7010008C7010008C7010008C701000850
:10007000C7010008C7010008C7010008C701000840
:10008000C7010008C7010008C7010008C701000830
:10009000C7010008C7010008C7010008C701000820
:1000A000C7010008C7010008C7010008C701000810
:1000B000C7010008C7010008C7010008C701000800
:1000C000C7010008C7010008C7010008C7010008F0
:1000D000C7010008C7010008C7010008C7010008E0
:1000E000C7010008C7010008C7010008C7010008D0
:1000F000C7010008C7010008C7010008C7010008C0
:10010000C7010008C7010008C7010008C7010008AF
:10011000C7010008C7010008C7010008C70100089F
:10012000C7010008C7010008C7010008C70100088F
:1001300000F002F800F02CF80AA090E8000C8244CD
:100140008344AAF10107DA4501D100F021F8AFF2AA
:10015000090EBAE80F0013F0010F18BFFB1A43F0A5
:1001600001031847000600001006000000230024C9
:1001700000250026103A28BF78C1FBD8520728BFB7
:1001800030C148BF0B6070471FB51FBD10B510BD13
:1001900000F076F81146FFF7F7FF00F0BBFA00F029
:1001A00094F803B4FFF7F2FF03BC00F09BF80000E3
:1001B00008480047FEE7FEE7FEE7FEE7FEE7FEE74A
:1001C000FEE7FEE7FEE7FEE703480449044A054B65
:1001D0007047000031010008600000206006002028
:1001E00060020020600200204FF000020429C0F0ED
:1001F000128010F0030C00F01E80CCF1040CBCF156
:10020000020F18BF00F8012BA8BF20F8022BA1EBAA
:100210000C0100F010B85FEAC17C24BF00F8012B8C
:1002200000F8012B48BF00F8012B7047704770475A
:1002300070474FF0000200B51346944696462039A9
:1002400022BFA0E80C50A0E80C50B1F12001BFF48F
:10025000F7AF090728BFA0E80C5048BF0CC05DF8F5
:1002600004EB890028BF40F8042B08BF704748BF43
:1002700020F8022B11F0804F18BF00F8012B7047B7
:10028000754600F02BF8AE4605006946534620F04F
:100290000700854618B020B5FFF796FFBDE820405F
:1002A0004FF000064FF000074FF000084FF0000B32
:1002B000AC46ACE8C009ACE8C009ACE8C009ACE8A1
:1002C000C00921F007018D46704710B50446AFF311
:1002D00000802046BDE81040FFF763BF004870472C
:1002E0000000002001491820ABBEFEE726000200F6
:1002F0007047000080B583B084460598CDF808C0EB
:10030000ADF806108DF805208DF804308DF8030047
:1003100000208DF80200FFE79DF802000F2862DC44
:10032000FFE7BDF806009DF80210C840C00700288E
:1003300052D0FFE700208DF801008DF800009DF8F5
:100340000200072808DCFFE79DF802008DF8010095
:1003500000208DF8000008E09DF8020008388DF8B4
:10036000010001208DF80000FFE79DF801008100E9
:100370000F2000FA01F302999DF8002051F82200A5
:10038000984341F822009DF805009DF8011089006E
:1003900000FA01F302999DF8002051F82200184359
:1003A00041F822009DF804009DF8011089000231F7
:1003B00000FA01F302999DF8002051F82200184339
:1003C00041F822009DF8050028B9FFE79DF80300D9
:1003D0000299C860FFE7FFE7FFE79DF802000130E0
:1003E0008DF8020098E703B080BD000080B586B0AC
:1003F00041F21801C4F20201086844F204021043F9
:100400000860694600200390086040F60000C4F2CE
:10041000010001904FF40071022302931A46FFF786
:1004200069FF0198029A03996B4619604FF4806145
:100430000123FFF75FFF039843F60C02C4F20102A9
:10044000116841F4005111600A210591272104919E
:1004500043F60801C4F2010108600598049A40EAD5
:10046000021208681043086006B080BD84B0029094
:100470000020ADF80600FFE743F60000C4F20100DB
:10048000016800208906002900900AD4FFE7BDF822
:10049000061042F2107200209142B8BF0120009075
:1004A000FFE70098C00730B1FFE7BDF80600013054
:1004B000ADF80600E0E7BDF8060042F21071884290
:1004C00004D1FFE701208DF80F000AE043F6040095
:1004D000C4F2010000680299087000208DF80F0036
:1004E000FFE79DF80F0004B07047000080B584B0AE
:1004F0000390039802900020ADF8060043F60C012B
:10050000C4F20101086840F004000860FFE70298A7
:10051000FFF7ACFF48B9FFE7029801300290BDF841
:1005200006000130ADF80600F1E7BDF8060004B0A2
:1005300080BD000081B08DF80300FFE743F60000A6
:10054000C4F2010000680006002801D4FFE7F5E7C7
:100550009DF8030043F60401C4F20101086001B0F4
:100560007047000080B582B00190ADF80210BDF870
:10057000020008B9FFE732E043F60C01C4F20101C2
:10058000086840F0080008600020ADF80000FFE7B0
:10059000BDF80000BDF8021088420DDAFFE70198AF
:1005A000BDF80010405CFFF7C5FFFFE7BDF8000095
:1005B0000130ADF80000EBE7FFE743F60000C4F2BE
:1005C000010000684006002801D4FFE7F5E743F684
:1005D0000001C4F201016FF040000860FFE702B0C3
:1005E00080BD000080B541F20001C4F2020108683C
:1005F00040F001000860FFE741F20000C4F2020091
:1006000000688007002801D4FFE7F5E741F2000108
:10061000C4F2020108684FF6FF72CFF6F4421040B0
:100620000860086820F48020086041F20401C4F2E8
:1006300002010020086041F20801C4F202010860D2
:1006400000F002F880BD000081B041F20001C4F268
:100650000201086840F480300860FFE741F20000C2
:10066000C4F2020000688003002801D4FFE7F5E728
:1006700041F20401C4F20201086840F480300860CD
:10068000086820F470100860086840F4E010086002
:1006900041F20001C4F20201086840F08070086075
:1006A000FFE741F20000C4F2020000688001002868
:1006B00001D4FFE7F5E741F20401C4F20201009121
:1006C000086820F4E0600860086840F48060086012
:1006D00042F20002C4F20202106820F0070010602B
:1006E000106840F002001060086820F00300086005
:1006F000086840F002000860FFE741F20400C4F21D
:100700000200006800F00C00082801D0FFE7F4E7C1
:1007100001B0704780B5ADF5826D00200190CDF835
:100720000C04FFF75FFFFFF761FE0198ADF80A04C4
:100730000DF10A004FF48061FFF756FDFFE70DF160
:100740000A00FFF7D3FEADF80A04BDF80A04012839
:1007500007DBFFE7BDF80A140DF10A00FFF702FFFF
:10076000FFE7ECE7740700080000002060060000C7
:040770006C01000810
:04000005080001B13D
:00000001FF
