:020000040800F2
:100000000004002045010008490100084B010008D8
:100010004D0100084F0100085101000800000000D8
:100020000000000000000000000000005301000874
:1000300055010008000000005701000859010008A0
:100040005B0100085B0100085B0100085B01000820
:100050005B0100085B0100085B0100085B01000810
:100060005B0100085B0100085B0100085B01000800
:100070005B0100085B0100085B0100085B010008F0
:100080005B0100085B0100085B0100085B010008E0
:100090005B0100085B0100085B0100085B010008D0
:1000A0005B0100085B0100085B0100085B010008C0
:1000B0005B0100085B0100085B0100085B010008B0
:1000C0005B0100085B0100085B0100085B010008A0
:1000D0005B0100085B0100085B0100085B01000890
:1000E0005B0100085B0100085B0100085B01000880
:1000F0005B0100085B0100085B0100085B01000870
:100100005B0100085B0100085B0100085B0100085F
:100110005B0100085B0100085B0100085B0100084F
:100120005B0100085B0100085B0100085B0100083F
:10013000DFF80CD000F014F8004800470D0200086A
:100140000004002005480047FEE7FEE7FEE7FEE763
:10015000FEE7FEE7FEE7FEE7FEE7FEE73101000807
:10016000064C074D06E0E06840F0010394E8070004
:1001700098471034AC42F6D3FFF7DEFF5C0200086C
:100180006C02000841F21801C4F20201086840F054
:100190000400086040F60401C4F20101086820F080
:1001A0000F000860086840F00200086040F60C018B
:1001B000C4F20101086820F48070086070470000F4
:1001C00081B000208DF80300FFE79DF80300C728E9
:1001D00019DCFFE70020ADF80000FFE7BDF80000E4
:1001E0004CF24F31884207DCFFE7FFE7BDF8000023
:1001F0000130ADF80000F1E7FFE79DF803000130A2
:100200008DF80300E1E701B07047000080B582B0CF
:1002100000200190FFF7B6FFFFE740F60C01C4F2A3
:1002200001010091086840F480700860FFF7C8FF82
:100230000099086820F480700860EEE702E008C8C2
:10024000121F08C1002AFAD170477047002001E050
:1002500001C1121F002AFBD1704700006C02000888
:0C02600000000020000400004C02000818
:0400000508000145A9
:00000001FF
