:020000040800F2
:1000000000040020490100084D0100084F010008CC
:1000100051010008530100085501000800000000CC
:100020000000000000000000000000005701000870
:1000300059010008000000005B0100085D01000894
:100040005F0100085F0100085F0100085F01000810
:100050005F0100085F0100085F0100085F01000800
:100060005F0100085F0100085F0100085F010008F0
:100070005F0100085F0100085F0100085F010008E0
:100080005F0100085F0100085F0100085F010008D0
:100090005F0100085F0100085F0100085F010008C0
:1000A0005F0100085F0100085F0100085F010008B0
:1000B0005F0100085F0100085F0100085F010008A0
:1000C0005F0100085F0100085F0100085F01000890
:1000D0005F0100085F0100085F0100085F01000880
:1000E0005F0100085F0100085F0100085F01000870
:1000F0005F0100085F0100085F0100085F01000860
:100100005F0100085F0100085F0100085F0100084F
:100110005F0100085F0100085F0100085F0100083F
:100120005F0100085F0100085F0100085F0100082F
:10013000DFF810D000F016F800480047510300081F
:10014000AFF300800004002005480047FEE7FEE70B
:10015000FEE7FEE7FEE7FEE7FEE7FEE7FEE7FEE777
:1001600031010008064C074D06E0E06840F001034D
:1001700094E8070098471034AC42F6D3FFF7DCFF51
:1001800088030008980300080C48806940F00400C8
:100190000A4988610A48006820F00F000849086091
:1001A0000846006840F00200086005480830006812
:1001B00020F4807002490831086070470010024046
:1001C0000408014070B504464FF4FA7094FBF0F057
:1001D00085B24FF4FA7094FBF0F100FB114086B247
:1001E00005E04FF4FA7000F008F8681E85B2002DA3
:1001F000F7DC304600F001F870BD10B542F228324D
:1002000002FB00F1B1F1807F00D310BD4FF0E0237D
:1002100059611B6923F004034FF0E0242361234656
:100220001B6943F00103236100BF4FF0E0231B690A
:1002300003F48033002BF8D04FF0E0231B6923F048
:1002400001034FF0E024236100BFDEE700B500208A
:1002500008494860084600680749084005490860A1
:100260000846006820F4802008600020886000F0C4
:1002700005F800BD00100240FFFFF4FC0021002241
:100280002948006840F48030274B186001E0481C82
:1002900081B22548006800F4003018B941F6FF70BB
:1002A0008142F4DB41F6FF70814201D1012238E046
:1002B0001D48406840F480601B4B586018464068F9
:1002C00040F4803058601846406840F42010586070
:1002D0001846006840F08070186000BF124800683F
:1002E00000F000700028F9D01048006820F00700E6
:1002F0000E4B18601846006840F0020018600A486B
:10030000406820F00300084B58601846406840F0F1
:100310000200586000BF0448007900F00C00082873
:10032000F9D1D0B270470000001002400020024016
:1003300002E008C8121F08C1002AFAD170477047AE
:10034000002001E001C1121F002AFBD1704700000C
:10035000FFF77CFFFFF718FF13E00A48006840F43E
:100360008070084908604FF4FA60FFF72BFF0548DA
:10037000006820F48070034908604FF4FA60FFF7CA
:1003800021FFEAE70C080140980300080000002064
:08039000000400004003000816
:0400000508000149A5
:00000001FF
