:020000040800F2
:100000005804002049010008251300083512000893
:1000100021130008B5010008B71600080000000011
:100020000000000000000000000000005513000860
:10003000B901000800000000291300085713000848
:100040006301000863010008630100086301000800
:1000500063010008630100086301000863010008F0
:1000600063010008630100086301000863010008E0
:1000700063010008630100086301000863010008D0
:1000800063010008630100086301000863010008C0
:1000900063010008630100086301000863010008B0
:1000A00063010008630100086301000863010008A0
:1000B0006301000863010008630100086301000890
:1000C0006301000863010008630100086301000880
:1000D0006301000863010008630100086301000870
:1000E0006301000863010008630100086301000860
:1000F0006301000863010008630100086301000850
:10010000630100086301000863010008630100083F
:10011000630100086301000863010008630100082F
:10012000630100086301000863010008630100081F
:10013000DFF810D000F02CF8004800471517000831
:10014000AFF3008058040020064880470648004767
:10015000FEE7FEE7FEE7FEE7FEE7FEE7FEE7FEE777
:10016000FEE7FEE7C513000831010008D2B201E046
:1001700000F8012B491EFBD270470022F6E710B5AC
:1001800013460A4604461946FFF7F0FF204610BD05
:10019000064C074D06E0E06840F0010394E80700D4
:1001A00098471034AC42F6D3FFF7C6FF4C1700084F
:1001B0006C17000800BFFEE7704772B600BFFEE78D
:1001C0002DE9F847024600239C467BE14FF00108E9
:1001D00008FA03F4D1F8008008EA0400A0427DD1B7
:1001E000DFF8F4A2D1F80480A8EB0A09D0453AD090
:1001F00014DCB8F1030F50D009DCB8F1000F31D096
:10020000B8F1010F1CD0B8F1020F49D120E0B8F1CC
:10021000110F18D0B8F1120F42D11EE0B9F5881FA6
:1002200025D006DCB9F5803F20D0B9F5801F37D145
:100230001AE0B9F5001F18D0B9F5041F30D117E046
:10024000D1F80CC02DE0D1F80C8008F1040C28E0A6
:10025000D1F80C8008F1080C23E0D1F80C8008F1EB
:100260000C0C1EE000BF00BF00BF00BF00BF00BFFE
:10027000D1F80880B8F1000F02D14FF0040C0BE068
:10028000D1F80880B8F1010F03D14FF0080C1461C8
:1002900002E04FF0080C546103E04FF0000C00E066
:1002A00000BF00BFFF2801D8904601E002F104081A
:1002B0004646FF2802D84FEA830803E0A3F1080866
:1002C0004FEA88084746D6F800804FF00F0909FA30
:1002D00007F928EA09080CFA07F900E07AE048EA89
:1002E0000908C6F80080D1F8048008F08058B8F1F9
:1002F000805F6FD100BFDFF8E481D8F8188048F044
:100300000108DFF8D891C9F81880C846D8F81880D5
:1003100008F00108CDF8008000BF00BF4FEAB938EF
:100320004FEA930958F829504FEA83784FEA187931
:100330004FF00F0808FA09F825EA0805DFF8A08150
:10034000424502D14FF0000824E0DFF89881424591
:1003500002D14FF001081DE0DFF88C81424502D147
:100360004FF0020816E0DFF88481424502D14FF0D9
:1003700003080FE0DFF87881424502D14FF004080E
:1003800008E0DFF87081424502D14FF0050801E036
:100390004FF006084FEA83794FEA197908FA09F80D
:1003A00048EA0505DFF850814FEA930948F82950DB
:1003B000D1F8048008F48038B8F5803F0BD1DFF81D
:1003C0003C81D8F8008048EA0008DFF83091C9F88D
:1003D00000800AE075E0DFF82481D8F8008028EA80
:1003E0000008DFF81891C9F80080D1F8048008F4FB
:1003F0000038B8F5003F0ED1DFF8008108F104089D
:10040000D8F8008048EA0008DFF8F09009F1040904
:10041000C9F800800DE0DFF8E48008F10408D8F89E
:10042000008028EA0008DFF8D49009F10409C9F82F
:100430000080D1F8048008F48018B8F5801F0ED130
:10044000DFF8B88008F10808D8F8008048EA00080A
:10045000DFF8A89009F10809C9F800800DE0DFF87D
:100460009C8008F10808D8F8008028EA0008DFF826
:100470008C9009F10809C9F80080D1F8048008F4CB
:100480000018B8F5001F0ED1DFF8708008F10C08D5
:10049000D8F8008048EA0008DFF8609009F10C09FC
:1004A000C9F800800DE0DFF8548008F10C08D8F896
:1004B000008028EA0008DFF8449009F10C09C9F827
:1004C00000805B1CD1F8008028FA03F8B8F1000F17
:1004D0007FF47CAEBDE8F8870000111000100240E8
:1004E00000080140000C01400010014000140140D0
:1004F00000180140001C01400800014000040140B8
:1005000001480068704700000000002003480068B0
:100510000349097808440149086070470000002039
:100520000800002010B50848006840F01000064997
:100530000860032000F098F8002000F007F800F0B1
:100540002BF8002010BD00000020024070B50446CA
:100550000E4800784FF47A71B1FBF0F00C4909684D
:10056000B1FBF0F5284600F0D5FB08B1012070BDC5
:10057000102C07D200222146501E00F037F8054803
:10058000046001E00120F2E70020F0E7080000200D
:100590000C0000200400002008B500BF114880694D
:1005A00040F001000F4988610846806900F00100B1
:1005B000009000BF00BF00BF0846C06940F08050F7
:1005C000C8610846C06900F08050009000BF00BFBD
:1005D00000BF0549486820F0E06040F000704860C6
:1005E00000BF08BD00100240000001402DE9F05F8F
:1005F00080460D461646002701F060F8074639464A
:100600002A46334601F00700C0F1070ABAF1040F89
:1006100002D94FF0040A01E0C0F1070AD14600F107
:10062000040ABAF1070F02D24FF0000A01E0A0F16C
:10063000030AD4464FF0010A0AFA09FAAAF1010A9C
:100640000AEA020A0AFA0CFA4FF0010B0BFA0CFB49
:10065000ABF1010B0BEA030B4AEA0B0421464046BF
:1006600001F034F8BDE8F09F00BF00F00702064B30
:1006700019684FF6FF031940044B0B4343EA02216C
:10068000014B196000BF70470CED00E00000FA0557
:1006900070B504460D460CB9012070BD5A4800687B
:1006A00000F00700A8420ED25748006820F007006B
:1006B0002843554908600846006800F00700A84232
:1006C00001D00120E9E7207800F0020002281DD1C6
:1006D000207800F00400042805D14C48406840F41C
:1006E000E0604A494860207800F00800082805D1F9
:1006F0004648406840F46050444948604348406878
:1007000020F0F000A168084340494860207800F0DC
:10071000010078B36068012806D13C48006800F405
:10072000003090B90120B8E76068022806D1374848
:10073000006800F0007040B90120AEE7334800685F
:1007400000F0020008B90120A7E73048406820F017
:100750000300616808432D494860FFF7D1FE064653
:1007600009E0FFF7CDFE801B41F28831884202D9B3
:10077000032092E707E02548406800F00C0061681C
:10078000B0EB810FEDD12048006800F00700A842CF
:100790000ED91D48006820F0070028431A49086058
:1007A0000846006800F00700A84201D0012074E765
:1007B000207800F00400042807D11448406820F491
:1007C000E060E168084311494860207800F00800C3
:1007D000082808D10D48406820F46050216940EA9B
:1007E000C1000A49486000F019F808494968C1F396
:1007F0000311074A515CC840064908600648006872
:10080000FFF7A4FE002048E700200240001002404D
:10081000341700080C00002004000020F0B585B05B
:100820000FF26C0C9CE8E01001A8A0E8E0101CA5F9
:100830002D68009500210022002300240020194D7E
:10084000696801F00C05F5B1042D02D0082D19D10D
:1008500001E0154819E001ADC1F38346AC5D01F438
:10086000803555B10F4D6D68C5F340451DF8052025
:100870000D4D6543B5FBF2F302E00C4D04FB05F3AF
:10088000184602E000BF084800BF00BF05B0F0BD39
:1008900002030405060708090A0B0C0D0E0F1010C1
:1008A000010200000010024000127A0000093D0021
:1008B000F8B504460CB90120F8BD207800F001001D
:1008C000002878D0F848406800F00C0004280CD0CC
:1008D000F548406800F00C00082811D1F248406843
:1008E00000F48030B0F5803F0AD1EF48006800F492
:1008F000003000285FD0606800285CD10120DBE771
:1009000000BF6068B0F5803F06D1E748006840F45A
:100910008030E549086028E0606858B9E24800681E
:1009200020F48030E04908600846006820F4802008
:1009300008601AE06068B0F5A02F0BD1DA480068B3
:1009400040F48020D84908600846006840F48030B0
:1009500008600AE0D448006820F48030D24908607A
:100960000846006820F48020086000BF606888B1F5
:10097000FFF7C6FD054606E0FFF7C2FD401B6428F1
:1009800001D9032098E7C848006800F40030002827
:10099000F2D010E0FFF7B4FD054606E0FFF7B0FD2A
:1009A000401B642801D9032086E7BF48006800F493
:1009B00000300028F2D1207800F00200022857D140
:1009C000B948406800F00C0050B1B748406800F0EA
:1009D0000C00082818D1B448406800F4803098B959
:1009E000B148006800F0020020B12069012801D060
:1009F000012061E7AC48006820F0F800616940EA36
:100A0000C100A949086033E02069E8B10120A74985
:100A10000860FFF775FD054606E0FFF771FD401B16
:100A2000022801D9032047E79F48006800F0020030
:100A30000028F2D09C48006820F0F800616940EA84
:100A4000C1009949086013E0002098490860FFF749
:100A500057FD054606E0FFF753FD401B022801D96C
:100A6000032029E79048006800F002000028F2D136
:100A7000207800F0080008282DD1A069B8B1012025
:100A80008B490860FFF73CFD054606E0FFF738FD9F
:100A9000401B022801D903200EE78348406A00F07A
:100AA00002000028F2D0012000F040FC13E00020FA
:100AB0007F490860FFF724FD054606E0FFF720FDAB
:100AC000401B022801D90320F6E67748406A00F06F
:100AD00002000028F2D1207800F00400042873D12D
:100AE00000277148C06900F0805070B900BF6E489F
:100AF000C06940F080506C49C8610846C06900F088
:100B00008050009000BF00BF01276A48006800F4D1
:100B10008070B0B96748006840F48070654908602B
:100B2000FFF7EEFC054606E0FFF7EAFC401B6428F1
:100B300001D90320C0E65F48006800F480700028F7
:100B4000F2D000BFE068012806D15748006A40F0A3
:100B500001005549086227E0E06858B95248006A28
:100B600020F00100504908620846006A20F00400A5
:100B7000086219E0E06805280BD14B48006A40F094
:100B80000400494908620846006A40F00100086212
:100B90000AE04548006A20F001004349086208461F
:100BA000006A20F00400086200BFE068A0B1FFF70F
:100BB000A7FC054609E0FFF7A3FC401B41F2883182
:100BC000884202D9032077E622E03748006A00F025
:100BD00002000028EFD012E0FFF792FC054608E083
:100BE000FFF78EFC401B41F28831884201D9032077
:100BF00062E62D48006A00F002000028F0D1012FC3
:100C000005D12948C06920F080502749C86100BF3C
:100C1000E069C8B32448406800F00C00082860D0A0
:100C2000E069022848D1002020490866FFF768FCE7
:100C3000054606E0FFF764FC401B022801D90320AB
:100C40003AE61948006800F000700028F2D1206AE6
:100C5000B0F5803F07D11448406820F40030A16807
:100C6000084311494860D4E9080108430E4949681E
:100C700021F4741108430C49486001200B490866AF
:100C8000FFF73EFC054607E03DE0FFF739FC401B5F
:100C9000022801D903200FE60348006800F0007025
:100CA0000028F2D02FE00000001002400000424275
:100CB0008004424200700040002014490866FFF79B
:100CC0001FFC054606E0FFF71BFC401B022801D96C
:100CD0000320F1E50E48006800F000700028F2D112
:100CE00011E0E069012800D1E6E50948466806F40C
:100CF0008031206A814204D106F47011606A814219
:100D000001D00120D8E50020D6E5000000004242D5
:100D10000010024070B504462546681EB0F1807F81
:100D200001D301200FE0681E4FF0E02148610F2140
:100D30004FF0FF3000F0CAFC00204FF0E021886146
:100D400007200861002070BD30B502460B4600BF89
:100D500092F83C00012801D1022030BD012082F828
:100D60003C0000BF022082F83D0010684468106813
:100D7000816824F070041868044310684460144DBE
:100D80001068A84213D0134D1068A8420FD0106805
:100D9000B0F1804F0BD0104D1068A84207D00F4D16
:100DA0001068A84203D00E4D1068A84205D121F06A
:100DB00080015868014310688160012082F83D007D
:100DC00000BF002082F83C0000BF00BFC5E7000064
:100DD000002C0140003401400004004000080040A5
:100DE000000C004010B504460CB9012010BD94F869
:100DF0003D0028B9002084F83C00204600F026F889
:100E0000022084F83D00211D206800F0DDFA012059
:100E100084F8460000BF84F83E0001213F200155C0
:100E2000402001554120015500BF00BF012084F83A
:100E3000420043200155442001554520015500BF83
:100E4000012084F83D000020D0E7000008B5094AE1
:100E5000016891420DD100BF0749C96941F0020103
:100E6000054AD1611146C96901F00201009100BF34
:100E700000BF08BD00040040001002402DE9F04111
:100E800004460D4600BF94F83C00012802D1022020
:100E9000BDE8F081012084F83C0000BF022084F806
:100EA0003D002068866826F0770626F47F46206895
:100EB00086602868502833D00CDC202850D004DC11
:100EC00000284BD0102851D149E0302849D0402883
:100ED0004CD139E060282DD0702807D0B0F5805F64
:100EE00003D0B0F5005F41D10DE040E0D5E9021339
:100EF0006A68206800F0C7FA2068866846F07706BE
:100F00002068866033E0D5E902136A68206800F043
:100F1000BAFA2068806840F480402168886026E042
:100F2000EA686968206800F09FFB5021206800F0A3
:100F3000B5FA1CE0EA686968206800F0A8FB602147
:100F4000206800F0ABFA12E0EA686968206800F0F7
:100F50008BFB4021206800F0A1FA08E000BF00BF31
:100F600000BF2968206800F099FA00E000BF00BFC8
:100F7000012084F83D0000BF002084F83C0000BF41
:100F800000BF85E710B586B00446002002900390AC
:100F9000049005900E492068884216D100BF0D4884
:100FA000806940F008000B4988610846806900F0BC
:100FB0000800019000BF00BF0120029002200390B2
:100FC000059002A90448FFF7FBF806B010BD000029
:100FD0000004004000100240000C014070B50446BF
:100FE0000D46164600BF94F83C00012801D10220AE
:100FF00070BD012084F83C0000BF36B1042E1BD028
:10100000082E31D00C2E5ED145E02946206800F034
:101010004FFA2068806940F00800216888612068E4
:10102000806920F00400216888612068806929694E
:1010300008432168886147E02946206800F070FA7B
:101040002068806940F400602168886120688069B8
:1010500020F480602168886120688069296940EAFD
:101060000120216888612FE02946206800F096FA67
:101070002068C06940F008002168C8612068C06924
:1010800020F004002168C8612068C069296908430C
:101090002168C86118E02946206800F0BBFA206882
:1010A000C06940F400602168C8612068C06920F40C
:1010B00080602168C8612068C069296940EA012010
:1010C0002168C86100E000BF00BF00BF002084F8B5
:1010D0003C0000BF00BF8BE710B504460CB90120EF
:1010E00010BD94F83D0028B9002084F83C0020464B
:1010F00000F025F8022084F83D00211D206800F052
:1011000063F9012084F8460000BF84F83E00012105
:101110003F200155402001554120015500BF00BF2F
:10112000012084F842004320015544200155452008
:10113000015500BF012084F83D000020D0E7704732
:1011400070B504460D4615B994F83E000BE0042D29
:1011500002D13F20005D06E0082D02D14020005D55
:1011600001E04120005D012801D0012070BD1DB9C2
:10117000022084F83E000EE0042D03D102213F201E
:10118000015508E0082D03D102214020015502E05D
:1011900002214120015501222946206800F062F910
:1011A0001F492068884203D01E492068884201D127
:1011B000012000E0002028B12068406C40F400408D
:1011C0002168486416492068884213D01549206870
:1011D00088420FD02068B0F1804F0BD012492068B0
:1011E000884207D011492068884203D010492068FE
:1011F00088420CD12068806800F00706062E0CD0CB
:101200002068006840F001002168086005E020685F
:10121000006840F00100216808600020A6E7000097
:10122000002C014000340140000400400008004050
:10123000000C004000BFFEE708B500BF0D48806904
:1012400040F008000B4988610846806900F00800FA
:10125000009000BF00BF00BF0846806940F0040056
:1012600088610846806900F00400009000BF00BF5C
:1012700008BD00000010024000B58DB000200990AC
:101280000A900B900C90079008901C216846FEF77E
:1012900074FF21482149086041F61F404860002141
:1012A0001E48816044F61F61C160002101618161B7
:1012B000FFF798FD08B1FEF780FF4FF480500990CA
:1012C00009A91648FFF7DAFD08B1FEF776FF1348C3
:1012D000FFF702FF08B1FEF770FF002007900890AB
:1012E00007A90E48FFF730FD08B1FEF766FF602042
:1012F000009040F69F700190002002900490082218
:1013000069460648FFF76AFE08B1FEF756FF034834
:10131000FFF738FE0DB000BD0004004010000020B3
:1013200000BFFEE700BFFEE77047000008B50849B0
:101330000968C9084FF47A72B1FBF2F14143009198
:1013400000BF00BF00994A1E00920029F9D108BDD4
:101350000C000020704710B5FFF7D8F810BD00B59D
:101360008FB0282105A8FEF708FF14216846FEF774
:1013700004FF012005900004069000200790012042
:10138000099002200C90C1030D914FF4E0110E91D1
:1013900005A8FFF78DFA08B1FEF70FFF0F200090A8
:1013A00002200190002002904FF480600390002002
:1013B000049002216846FFF76BF908B1FEF7FDFEC5
:1013C0000FB000BD7047000010B50268204B984276
:1013D0000ED0204B98420BD0B0F1804F08D01E4B5E
:1013E000984205D01D4B984202D01D4B984203D124
:1013F00022F070024B681A43154B98420ED0154BE1
:1014000098420BD0B0F1804F08D0134B984205D0D2
:10141000124B984202D0124B984203D122F44072F0
:10142000CB681A4322F080034C6943EA040202604D
:101430008B68C3620B688362054B984202D0054BF0
:10144000984201D10B6903630123436110BD000081
:10145000002C01400034014000040040000800401E
:10146000000C004030B501F01F05012404FA05F31B
:10147000046A9C430462046A01F01F0502FA05F540
:101480002C43046230BD30B50C46816821F47F41A5
:1014900042EA032525432943816030BD0A4681681D
:1014A00021F0700142F0070319438160704700008A
:1014B00030B5056A25F001050562026A4368846952
:1014C00024F0700424F003040D682C4322F002027F
:1014D0008D682A43104DA84200D103E00F4DA84269
:1014E00006D100BF22F00802CD682A4322F0040290
:1014F000094DA84202D0094DA84207D123F48073B8
:1015000023F400734D692B438D692B434360846141
:101510004D684563026230BD002C0140003401403B
:1015200030B5056A25F010050562026A43688469D2
:1015300024F4E04424F440740D6844EA052422F0C5
:1015400020028D6842EA0512124DA84200D103E044
:10155000114DA84207D100BF22F08002CD6842EAB7
:10156000051222F040020B4DA84202D00A4DA842BB
:1015700009D123F4806323F400634D6943EA8503B2
:101580008D6943EA8503436084614D688563026227
:1015900030BD0000002C01400034014030B5056A28
:1015A00025F480750562026A4368C46924F07004FA
:1015B00024F003040D682C4322F400728D6842EA83
:1015C0000522124DA84200D103E0114DA84207D1D7
:1015D00000BF22F40062CD6842EA052222F4806254
:1015E0000A4DA84202D00A4DA84209D123F48053E3
:1015F00023F400534D6943EA05138D6943EA05134B
:101600004360C4614D68C563026230BD002C014077
:101610000034014030B5056A25F480550562036A3F
:101620004468C26922F4E04222F440720D6842EA42
:10163000052223F400538D6843EA0533084DA84280
:1016400002D0084DA84204D124F480444D6944EAF4
:1016500085144460C2614D680564036230BD0000BA
:10166000002C01400034014030B50B461446026A9C
:10167000056A25F001050562816921F0F00141EA62
:10168000041122F00A021A438161026230BD30B5B2
:101690000B461446056A25F0100505628169026A49
:1016A00021F4704141EA043122F0A00242EA03121F
:1016B0008161026230BD00BFFEE7000002480068A1
:1016C000C0F30220704700000CED00E010B50028C8
:1016D00004DB0A07130E054A135406E00A07140E2A
:1016E000034A00F00F031B1FD45410BD00E400E0B8
:1016F00018ED00E002E008C8121F08C1002AFAD164
:1017000070477047002001E001C1121F002AFBD181
:1017100070470000FEF706FFFFF721FEFFF78CFD84
:10172000FFF7AAFD08210248FFF70AFD00BFFEE708
:10173000100000200000000000000000010203046F
:101740000607080900000000010203046C170008E6
:101750000000002010000000F41600087C170008AC
:1017600010000020480400000417000800000000DA
:0C17700010000000010000000024F40044
:0400000508000131BD
:00000001FF
