:020000040800F2
:1000000000040020490100084D0100084F010008CC
:1000100051010008530100085501000800000000CC
:100020000000000000000000000000005701000870
:1000300059010008000000005B0100085D01000894
:100040005F0100085F0100085F0100085F01000810
:100050005F0100085F0100085F0100085F01000800
:100060005F0100085F0100085F0100085F010008F0
:100070005F0100085F0100085F0100085F010008E0
:100080005F0100085F0100085F0100085F010008D0
:100090005F0100085F0100085F0100085F010008C0
:1000A0005F0100085F0100085F0100085F010008B0
:1000B0005F0100085F0100085F0100085F010008A0
:1000C0005F0100085F0100085F0100085F01000890
:1000D0005F0100085F0100085F0100085F01000880
:1000E0005F0100085F0100085F0100085F01000870
:1000F0005F0100085F0100085F0100085F01000860
:100100005F0100085F0100085F0100085F0100084F
:100110005F0100085F0100085F0100085F0100083F
:100120005F0100085F0100085F0100085F0100082F
:10013000DFF810D000F016F800480047A9010008C9
:10014000AFF300800004002005480047FEE7FEE70B
:10015000FEE7FEE7FEE7FEE7FEE7FEE7FEE7FEE777
:1001600031010008064C074D06E0E06840F001034D
:1001700094E8070098471034AC42F6D3FFF7DCFF51
:10018000E8010008F801000802E008C8121F08C1D1
:10019000002AFAD170477047002001E001C1121F08
:1001A000002AFBD1704700000D48806940F008002C
:1001B0000B4988610B48006820F488700949086081
:1001C0000846006840F02000086006480C300068CF
:1001D00020F0020003490C31086000BFFEE7000078
:1001E00000100240000C0140F8010008000000204F
:0801F000000400009801000862
:0400000508000149A5
:00000001FF
