:020000040800F2
:1000000000040020490100084D0100084F010008CC
:1000100051010008530100085501000800000000CC
:100020000000000000000000000000005701000870
:1000300059010008000000005B0100085D01000894
:100040005F0100085F0100085F0100085F01000810
:100050005F0100085F0100085F0100085F01000800
:100060005F0100085F0100085F0100085F010008F0
:100070005F0100085F0100085F0100085F010008E0
:100080005F0100085F0100085F0100085F010008D0
:100090005F0100085F0100085F0100085F010008C0
:1000A0005F0100085F0100085F0100085F010008B0
:1000B0005F010008E90300085F0100085F01000814
:1000C0005F0100085F0100085F0100085F01000890
:1000D0005F0100085F0100085F0100085F01000880
:1000E0005F0100085F0100085F0100085F01000870
:1000F0005F0100085F0100085F0100085F01000860
:100100005F0100085F0100085F0100085F0100084F
:100110005F0100085F0100085F0100085F0100083F
:100120005F0100085F0100085F0100085F0100082F
:10013000DFF810D000F016F800480047BF040008B0
:10014000AFF300800004002005480047FEE7FEE70B
:10015000FEE7FEE7FEE7FEE7FEE7FEE7FEE7FEE777
:1001600031010008064C074D06E0E06840F001034D
:1001700094E8070098471034AC42F6D3FFF7DCFF51
:10018000D4040008E40400082DE9F0430D461446A9
:100190001E46079F002138E001228A402A400123A1
:1001A0008B409A422FD100230022072901DC0B4605
:1001B00004E0A1F1080C0CF0FF03012250F822C06A
:1001C0004FEA83094FF00F0808FA09F82CEA080CE7
:1001D00040F822C050F822C04FEA830804FA08F819
:1001E0004CEA080C40F822C050F822C04FF0020838
:1001F00008EB830806FA08F84CEA080C40F822C01D
:1002000004B9C76000BF4A1CD1B21029C4DBBDE8E5
:10021000F083000008B50B48806940F008000949E8
:100220008861002003460222212100900648FFF742
:10023000ABFF00200549086001200549C1F8940181
:1002400008BD000000100240000C014080812142E6
:10025000008021422DE9F04104460D461646204615
:10026000E11704EBD161C1F34717E11704EBD1614A
:100270004911A4EB411101F0FF08B80000F1E020A2
:10028000D0F80001012101FA08F10843B90001F199
:10029000E021C1F80001284600F01AF8002104F11D
:1002A000E02080F8001490F80004184304F1E021E5
:1002B00081F80004084690F80004691C06FA01F170
:1002C0000843C1B204F1E02080F80014BDE8F081D9
:1002D0000146064A10684FF6FF021040044A02EA3F
:1002E00001221043014A1060704700000CED00E04D
:1002F0000000FA0500B50F48006840F001000D4904
:10030000086000BF0B48006800F002000028F9D028
:10031000084800680849084006490860084600681F
:1003200020F48020086000204860886000F006F813
:1003300000BD000000100240FFFFF4FC28480068E8
:1003400040F480302649086000BF2548006800F46A
:1003500000300028F9D02248406840F4803020491D
:1003600048600846406820F47010486008464068BD
:1003700040F4E01048600846006840F08070086073
:1003800000BF1748006800F000700028F9D014483A
:10039000406820F4E060124948600846406840F434
:1003A000806048600F48006820F007000D49086031
:1003B0000846006840F0020008600948406820F0E4
:1003C0000300074948600846406840F00200486062
:1003D00000BF0348406800F00C000828F9D17047BE
:1003E00000100240002002400E48006800F00100AA
:1003F000B8B10C48006820F001000A4908600A48BA
:10040000006800F0010030B90748006840F00100C2
:100410000549086005E00448006820F00100024931
:1004200008607047100400400C0C014010B51148E2
:10043000C06940F002000F49C86141F61F400E49F3
:10044000086042F20F70091D08600B4828380068E8
:1004500040F010000849283908600846006840F05C
:10046000800008600023032211461D20FFF7F2FEE2
:1004700010BD00000010024028040040074800683A
:1004800040F001000549086004480C38006840F05D
:10049000010002490C390860704700000C0400405C
:1004A00002E008C8121F08C1002AFAD1704770473D
:1004B000002001E001C1121F002AFBD17047FFF7A5
:1004C00019FFFFF7A7FEFFF7B1FFFFF7D7FF00BF48
:1004D000FEE70000E4040008000000200004000023
:0404E000B00400085C
:0400000508000149A5
:00000001FF
