:020000040800F2
:1000000008040020490100084D0100084F010008C4
:1000100051010008530100085501000800000000CC
:100020000000000000000000000000005701000870
:1000300059010008000000005B0100085D01000894
:100040005F0100085F0100085F0100085F01000810
:100050005F0100085F0100085F0100085F01000800
:100060005F0100085F0100085F0100085F010008F0
:100070005F0100085F0100085F0100085F010008E0
:100080005F0100085F0100085F0100085F010008D0
:100090005F0100085F0100085F0100085F010008C0
:1000A0005F0100085F0100085F0100085F010008B0
:1000B0005F0100085F0100085F0100085F010008A0
:1000C0005F0100085F0100085F0100085F01000890
:1000D0005F0100085F0100085F0100085F01000880
:1000E0005F0100085F0100085F0100085F01000870
:1000F0005F0100085F0100085F0100085F01000860
:100100005F0100085F0100085F0100085F0100084F
:100110005F0100085F0100085F0100085F0100083F
:100120005F0100085F0100085F0100085F0100082F
:10013000DFF810D000F016F8004800475D05000811
:10014000AFF300800804002005480047FEE7FEE703
:10015000FEE7FEE7FEE7FEE7FEE7FEE7FEE7FEE777
:1001600031010008064C074D06E0E06840F001034D
:1001700094E8070098471034AC42F6D3FFF7DCFF51
:10018000D4050008F405000808B50948806940F066
:100190000800074988610020034602228915009063
:1001A000044800F04FF800200349086008BD000033
:1001B0000010024000080140A001214270B5044631
:1001C0004FF4FA7094FBF0F085B24FF4FA7094FBA0
:1001D000F0F100FB114086B205E04FF4FA7000F038
:1001E00008F8681E85B2002DF7DC304600F001F8F3
:1001F00070BD10B542F2283202FB00F1B1F1807FF0
:1002000000D310BD4FF0E02359611B6923F00403B4
:100210004FF0E024236123461B6943F0010323616F
:1002200000BF4FF0E0231B6903F48033002BF8D0AC
:100230004FF0E0231B6923F001034FF0E02423611A
:1002400000BFDEE72DE9F0430D4614461E46079F2A
:10025000002138E001228A402A4001238B409A4243
:100260002FD100230022072901DC0B4604E0A1F175
:10027000080C0CF0FF03012250F822C04FEA83095A
:100280004FF00F0808FA09F82CEA080C40F822C0D1
:1002900050F822C04FEA830804FA08F84CEA080C28
:1002A00040F822C050F822C04FF0020808EB830843
:1002B00006FA08F84CEA080C40F822C004B9C760F6
:1002C00000BF4A1CD1B21029C4DBBDE8F083000096
:1002D00008B51348806940F4AA701149886100206C
:1002E00001230246194600900E48FFF7ABFF00209D
:1002F00001230246590300900B48FFF7A3FF00209B
:1003000001230246082100900848FFF79BFF0020C8
:1003100001230246D90300900548FFF793FF08BD6B
:100320000010024000080140001001400018014088
:100330000020014008B50A48806940F008000849DB
:100340008861002003460222212100900548FFF722
:1003500079FF0120044908600449C1F8940108BDEF
:1003600000100240000C01408081214200802142A7
:1003700010B53048006840B12F48006828B12F48B8
:10038000006810B12E48006848BB2E48007801284C
:1003900025D10A20FFF712FF2648006840B1264801
:1003A000006828B12548006810B125480068B0B938
:1003B0000020244908701F48006808B9012010BDBA
:1003C0001D48006808B90220F9E71C48006808B910
:1003D0000320F4E71A48006808B90420EFE715483D
:1003E000006801280BD014480068012807D0134882
:1003F0000068012803D012480068012818D111486C
:100400000078A8B90A20FFF7D9FE0A480068012839
:100410000BD009480068012807D008480068012867
:1004200003D007480068012802D10120054908705F
:100430000020C4E7000121423C0124423401224251
:100440000C0123420000002000B50F48006840F076
:1004500001000D49086000BF0B48006800F0020071
:100460000028F9D008480068084908400649086093
:100470000846006820F480200860002048608860FA
:1004800000F006F800BD000000100240FFFFF4FC81
:100490002848006840F480302649086000BF25489D
:1004A000006800F400300028F9D02248406840F489
:1004B0008030204948600846406820F47010486049
:1004C0000846406840F4E01048600846006840F084
:1004D0008070086000BF1748006800F000700028B6
:1004E000F9D01448406820F4E0601249486008469A
:1004F000406840F4806048600F48006820F00700C2
:100500000D4908600846006840F00200086009488C
:10051000406820F00300074948600846406840F002
:100520000200486000BF0348406800F00C00082843
:10053000F9D17047001002400020024002E008C8D4
:10054000121F08C1002AFAD170477047002001E04D
:1005500001C1121F002AFBD170470000FFF774FF92
:10056000FFF7B6FEFFF7E6FEFFF70EFE2BE0FFF704
:10057000FFFE0446012C06D0022C08D0032C0AD022
:10058000042C14D10CE001200F49086019E0002070
:100590000E49086015E000200C491431086010E095
:1005A00000200A4908600A49C1F8940109E00120C5
:1005B000064908600649C1F8940100200249086014
:1005C00000BF00BF00BFD2E7A001214280812142CD
:1005D00000802142F4050008000000200400000013
:1005E0003C050008F8050008040000200404000091
:0805F0004C05000801000000A9
:0400000508000149A5
:00000001FF
