:020000040800F2
:1000000000040020490100084D0100084F010008CC
:1000100051010008530100085501000800000000CC
:100020000000000000000000000000005701000870
:1000300059010008000000005B0100085D01000894
:100040005F0100085F0100085F0100085F01000810
:100050005F0100085F0100085F0100085F01000800
:100060005F0100085F0100085F0100085F010008F0
:100070005F0100085F0100085F0100085F010008E0
:100080005F0100085F0100085F0100085F010008D0
:100090005F0100085F0100085F0100085F010008C0
:1000A0005F0100085F0100085F0100085F010008B0
:1000B0005F0100085F0100085F0100085F010008A0
:1000C0005F0100085F0100085F0100085F01000890
:1000D0005F0100085F0100085F0100085F01000880
:1000E0005F0100085F0100085F0100085F01000870
:1000F0005F0100085F0100085F0100085F01000860
:100100005F0100085F0100085F0100085F0100084F
:100110005F0100085F0100085F0100085F0100083F
:100120005F0100085F0100085F0100085F0100082F
:10013000DFF810D000F016F800480047E902000888
:10014000AFF300800004002005480047FEE7FEE70B
:10015000FEE7FEE7FEE7FEE7FEE7FEE7FEE7FEE777
:1001600031010008064C074D06E0E06840F001034D
:1001700094E8070098471034AC42F6D3FFF7DCFF51
:100180001803000828030008002009E0002101E00E
:100190004A1C91B242F210729142F9DB421C90B2B9
:1001A000C828F3DB704700000C48806940F0080065
:1001B0000A4988610A48006820F488700849086084
:1001C0000846006840F02000086005480C300068D0
:1001D00040F0020002490C310860704700100240F4
:1001E000000C014000B5002008494860084600683E
:1001F00007490840054908600846006820F4802047
:1002000008600020886000F005F800BD0010024082
:10021000FFFFF4FC002100222948006840F48030F0
:10022000274B186001E0481C81B22548006800F4A3
:10023000003018B941F6FF708142F4DB41F6FF70DF
:10024000814201D1012238E01D48406840F48060BD
:100250001B4B58601846406840F480305860184680
:10026000406840F4E01058601846006840F0807024
:10027000186000BF1248006800F000700028F9D034
:100280001048006820F007000E4B18601846006800
:1002900040F0020018600A48406820F00300084B54
:1002A00058601846406840F00200586000BF04489B
:1002B000007900F00C000828F9D1D0B27047000096
:1002C000001002400020024002E008C8121F08C1CE
:1002D000002AFAD170477047002001E001C1121FC7
:1002E000002AFBD170470000FFF77CFFFFF75CFF9F
:1002F0000FE00848006820F0020006490860FFF798
:1003000043FF0448006840F0020002490860FFF71C
:100310003BFFEEE70C0C0140280300080000002022
:0803200000040000D8020008EF
:0400000508000149A5
:00000001FF
